{
  "contractName": "DAO",
  "abi": [
    {
      "inputs": [
        {
          "internalType": "address",
          "name": "_curator",
          "type": "address"
        },
        {
          "internalType": "contract DAO_Creator",
          "name": "_daoCreator",
          "type": "address"
        },
        {
          "internalType": "uint256",
          "name": "_proposalDeposit",
          "type": "uint256"
        },
        {
          "internalType": "uint256",
          "name": "_minTokensToCreate",
          "type": "uint256"
        },
        {
          "internalType": "uint256",
          "name": "_closingTime",
          "type": "uint256"
        },
        {
          "internalType": "address",
          "name": "_privateCreation",
          "type": "address"
        },
        {
          "internalType": "string",
          "name": "_tokenName",
          "type": "string"
        },
        {
          "internalType": "string",
          "name": "_tokenSymbol",
          "type": "string"
        },
        {
          "internalType": "uint8",
          "name": "_decimalPlaces",
          "type": "uint8"
        }
      ],
      "stateMutability": "nonpayable",
      "type": "constructor"
    },
    {
      "anonymous": false,
      "inputs": [
        {
          "indexed": true,
          "internalType": "address",
          "name": "_recipient",
          "type": "address"
        },
        {
          "indexed": false,
          "internalType": "bool",
          "name": "_allowed",
          "type": "bool"
        }
      ],
      "name": "AllowedRecipientChanged",
      "type": "event"
    },
    {
      "anonymous": false,
      "inputs": [
        {
          "indexed": true,
          "internalType": "address",
          "name": "_owner",
          "type": "address"
        },
        {
          "indexed": true,
          "internalType": "address",
          "name": "_spender",
          "type": "address"
        },
        {
          "indexed": false,
          "internalType": "uint256",
          "name": "_amount",
          "type": "uint256"
        }
      ],
      "name": "Approval",
      "type": "event"
    },
    {
      "anonymous": false,
      "inputs": [
        {
          "indexed": true,
          "internalType": "address",
          "name": "to",
          "type": "address"
        },
        {
          "indexed": false,
          "internalType": "uint256",
          "name": "amount",
          "type": "uint256"
        }
      ],
      "name": "CreatedToken",
      "type": "event"
    },
    {
      "anonymous": false,
      "inputs": [
        {
          "indexed": false,
          "internalType": "uint256",
          "name": "value",
          "type": "uint256"
        }
      ],
      "name": "FuelingToDate",
      "type": "event"
    },
    {
      "anonymous": false,
      "inputs": [
        {
          "indexed": true,
          "internalType": "address",
          "name": "_newCurator",
          "type": "address"
        }
      ],
      "name": "NewCurator",
      "type": "event"
    },
    {
      "anonymous": false,
      "inputs": [
        {
          "indexed": true,
          "internalType": "uint256",
          "name": "proposalID",
          "type": "uint256"
        },
        {
          "indexed": false,
          "internalType": "address",
          "name": "recipient",
          "type": "address"
        },
        {
          "indexed": false,
          "internalType": "uint256",
          "name": "amount",
          "type": "uint256"
        },
        {
          "indexed": false,
          "internalType": "bool",
          "name": "newCurator",
          "type": "bool"
        },
        {
          "indexed": false,
          "internalType": "string",
          "name": "description",
          "type": "string"
        }
      ],
      "name": "ProposalAdded",
      "type": "event"
    },
    {
      "anonymous": false,
      "inputs": [
        {
          "indexed": true,
          "internalType": "uint256",
          "name": "proposalID",
          "type": "uint256"
        },
        {
          "indexed": false,
          "internalType": "bool",
          "name": "result",
          "type": "bool"
        },
        {
          "indexed": false,
          "internalType": "uint256",
          "name": "quorum",
          "type": "uint256"
        }
      ],
      "name": "ProposalTallied",
      "type": "event"
    },
    {
      "anonymous": false,
      "inputs": [
        {
          "indexed": true,
          "internalType": "address",
          "name": "to",
          "type": "address"
        },
        {
          "indexed": false,
          "internalType": "uint256",
          "name": "value",
          "type": "uint256"
        }
      ],
      "name": "Refund",
      "type": "event"
    },
    {
      "anonymous": false,
      "inputs": [
        {
          "indexed": true,
          "internalType": "address",
          "name": "_from",
          "type": "address"
        },
        {
          "indexed": true,
          "internalType": "address",
          "name": "_to",
          "type": "address"
        },
        {
          "indexed": false,
          "internalType": "uint256",
          "name": "_amount",
          "type": "uint256"
        }
      ],
      "name": "Transfer",
      "type": "event"
    },
    {
      "anonymous": false,
      "inputs": [
        {
          "indexed": true,
          "internalType": "uint256",
          "name": "proposalID",
          "type": "uint256"
        },
        {
          "indexed": false,
          "internalType": "bool",
          "name": "position",
          "type": "bool"
        },
        {
          "indexed": true,
          "internalType": "address",
          "name": "voter",
          "type": "address"
        }
      ],
      "name": "Voted",
      "type": "event"
    },
    {
      "stateMutability": "nonpayable",
      "type": "fallback"
    },
    {
      "inputs": [
        {
          "internalType": "address",
          "name": "",
          "type": "address"
        }
      ],
      "name": "DAOpaidOut",
      "outputs": [
        {
          "internalType": "uint256",
          "name": "",
          "type": "uint256"
        }
      ],
      "stateMutability": "view",
      "type": "function"
    },
    {
      "inputs": [],
      "name": "DAOrewardAccount",
      "outputs": [
        {
          "internalType": "contract ManagedAccount",
          "name": "",
          "type": "address"
        }
      ],
      "stateMutability": "view",
      "type": "function"
    },
    {
      "inputs": [
        {
          "internalType": "address",
          "name": "_owner",
          "type": "address"
        },
        {
          "internalType": "address",
          "name": "_spender",
          "type": "address"
        }
      ],
      "name": "allowance",
      "outputs": [
        {
          "internalType": "uint256",
          "name": "remaining",
          "type": "uint256"
        }
      ],
      "stateMutability": "view",
      "type": "function"
    },
    {
      "inputs": [
        {
          "internalType": "address",
          "name": "",
          "type": "address"
        }
      ],
      "name": "allowedRecipients",
      "outputs": [
        {
          "internalType": "bool",
          "name": "",
          "type": "bool"
        }
      ],
      "stateMutability": "view",
      "type": "function"
    },
    {
      "inputs": [
        {
          "internalType": "address",
          "name": "_spender",
          "type": "address"
        },
        {
          "internalType": "uint256",
          "name": "_amount",
          "type": "uint256"
        }
      ],
      "name": "approve",
      "outputs": [
        {
          "internalType": "bool",
          "name": "success",
          "type": "bool"
        }
      ],
      "stateMutability": "nonpayable",
      "type": "function"
    },
    {
      "inputs": [
        {
          "internalType": "address",
          "name": "_spender",
          "type": "address"
        },
        {
          "internalType": "uint256",
          "name": "_value",
          "type": "uint256"
        },
        {
          "internalType": "bytes",
          "name": "_extraData",
          "type": "bytes"
        }
      ],
      "name": "approveAndCall",
      "outputs": [
        {
          "internalType": "bool",
          "name": "success",
          "type": "bool"
        }
      ],
      "stateMutability": "nonpayable",
      "type": "function"
    },
    {
      "inputs": [
        {
          "internalType": "address",
          "name": "_owner",
          "type": "address"
        }
      ],
      "name": "balanceOf",
      "outputs": [
        {
          "internalType": "uint256",
          "name": "balance",
          "type": "uint256"
        }
      ],
      "stateMutability": "view",
      "type": "function"
    },
    {
      "inputs": [
        {
          "internalType": "address",
          "name": "",
          "type": "address"
        }
      ],
      "name": "blocked",
      "outputs": [
        {
          "internalType": "uint256",
          "name": "",
          "type": "uint256"
        }
      ],
      "stateMutability": "view",
      "type": "function"
    },
    {
      "inputs": [],
      "name": "closingTime",
      "outputs": [
        {
          "internalType": "uint256",
          "name": "",
          "type": "uint256"
        }
      ],
      "stateMutability": "view",
      "type": "function"
    },
    {
      "inputs": [
        {
          "internalType": "address",
          "name": "_tokenHolder",
          "type": "address"
        }
      ],
      "name": "createTokenProxy",
      "outputs": [
        {
          "internalType": "bool",
          "name": "success",
          "type": "bool"
        }
      ],
      "stateMutability": "payable",
      "type": "function"
    },
    {
      "inputs": [],
      "name": "curator",
      "outputs": [
        {
          "internalType": "address",
          "name": "",
          "type": "address"
        }
      ],
      "stateMutability": "view",
      "type": "function"
    },
    {
      "inputs": [],
      "name": "daoCreator",
      "outputs": [
        {
          "internalType": "contract DAO_Creator",
          "name": "",
          "type": "address"
        }
      ],
      "stateMutability": "view",
      "type": "function"
    },
    {
      "inputs": [],
      "name": "decimals",
      "outputs": [
        {
          "internalType": "uint8",
          "name": "",
          "type": "uint8"
        }
      ],
      "stateMutability": "view",
      "type": "function"
    },
    {
      "inputs": [],
      "name": "divisor",
      "outputs": [
        {
          "internalType": "uint256",
          "name": "divisor",
          "type": "uint256"
        }
      ],
      "stateMutability": "view",
      "type": "function"
    },
    {
      "inputs": [],
      "name": "extraBalance",
      "outputs": [
        {
          "internalType": "contract ManagedAccount",
          "name": "",
          "type": "address"
        }
      ],
      "stateMutability": "view",
      "type": "function"
    },
    {
      "inputs": [],
      "name": "isFueled",
      "outputs": [
        {
          "internalType": "bool",
          "name": "",
          "type": "bool"
        }
      ],
      "stateMutability": "view",
      "type": "function"
    },
    {
      "inputs": [],
      "name": "lastTimeMinQuorumMet",
      "outputs": [
        {
          "internalType": "uint256",
          "name": "",
          "type": "uint256"
        }
      ],
      "stateMutability": "view",
      "type": "function"
    },
    {
      "inputs": [],
      "name": "minQuorumDivisor",
      "outputs": [
        {
          "internalType": "uint256",
          "name": "",
          "type": "uint256"
        }
      ],
      "stateMutability": "view",
      "type": "function"
    },
    {
      "inputs": [],
      "name": "minTokensToCreate",
      "outputs": [
        {
          "internalType": "uint256",
          "name": "",
          "type": "uint256"
        }
      ],
      "stateMutability": "view",
      "type": "function"
    },
    {
      "inputs": [],
      "name": "name",
      "outputs": [
        {
          "internalType": "string",
          "name": "",
          "type": "string"
        }
      ],
      "stateMutability": "view",
      "type": "function"
    },
    {
      "inputs": [
        {
          "internalType": "address",
          "name": "",
          "type": "address"
        }
      ],
      "name": "paidOut",
      "outputs": [
        {
          "internalType": "uint256",
          "name": "",
          "type": "uint256"
        }
      ],
      "stateMutability": "view",
      "type": "function"
    },
    {
      "inputs": [],
      "name": "privateCreation",
      "outputs": [
        {
          "internalType": "address",
          "name": "",
          "type": "address"
        }
      ],
      "stateMutability": "view",
      "type": "function"
    },
    {
      "inputs": [],
      "name": "proposalDeposit",
      "outputs": [
        {
          "internalType": "uint256",
          "name": "",
          "type": "uint256"
        }
      ],
      "stateMutability": "view",
      "type": "function"
    },
    {
      "inputs": [
        {
          "internalType": "uint256",
          "name": "",
          "type": "uint256"
        }
      ],
      "name": "proposals",
      "outputs": [
        {
          "internalType": "address",
          "name": "recipient",
          "type": "address"
        },
        {
          "internalType": "uint256",
          "name": "amount",
          "type": "uint256"
        },
        {
          "internalType": "string",
          "name": "description",
          "type": "string"
        },
        {
          "internalType": "uint256",
          "name": "votingDeadline",
          "type": "uint256"
        },
        {
          "internalType": "bool",
          "name": "open",
          "type": "bool"
        },
        {
          "internalType": "bool",
          "name": "proposalPassed",
          "type": "bool"
        },
        {
          "internalType": "bytes32",
          "name": "proposalHash",
          "type": "bytes32"
        },
        {
          "internalType": "uint256",
          "name": "proposalDeposit",
          "type": "uint256"
        },
        {
          "internalType": "bool",
          "name": "newCurator",
          "type": "bool"
        },
        {
          "internalType": "uint256",
          "name": "yea",
          "type": "uint256"
        },
        {
          "internalType": "uint256",
          "name": "nay",
          "type": "uint256"
        },
        {
          "internalType": "address payable",
          "name": "creator",
          "type": "address"
        }
      ],
      "stateMutability": "view",
      "type": "function"
    },
    {
      "inputs": [],
      "name": "refund",
      "outputs": [],
      "stateMutability": "nonpayable",
      "type": "function"
    },
    {
      "inputs": [],
      "name": "rewardAccount",
      "outputs": [
        {
          "internalType": "contract ManagedAccount",
          "name": "",
          "type": "address"
        }
      ],
      "stateMutability": "view",
      "type": "function"
    },
    {
      "inputs": [
        {
          "internalType": "address",
          "name": "",
          "type": "address"
        }
      ],
      "name": "rewardToken",
      "outputs": [
        {
          "internalType": "uint256",
          "name": "",
          "type": "uint256"
        }
      ],
      "stateMutability": "view",
      "type": "function"
    },
    {
      "inputs": [],
      "name": "standard",
      "outputs": [
        {
          "internalType": "string",
          "name": "",
          "type": "string"
        }
      ],
      "stateMutability": "view",
      "type": "function"
    },
    {
      "inputs": [],
      "name": "symbol",
      "outputs": [
        {
          "internalType": "string",
          "name": "",
          "type": "string"
        }
      ],
      "stateMutability": "view",
      "type": "function"
    },
    {
      "inputs": [],
      "name": "totalRewardToken",
      "outputs": [
        {
          "internalType": "uint256",
          "name": "",
          "type": "uint256"
        }
      ],
      "stateMutability": "view",
      "type": "function"
    },
    {
      "inputs": [],
      "name": "totalSupply",
      "outputs": [
        {
          "internalType": "uint256",
          "name": "",
          "type": "uint256"
        }
      ],
      "stateMutability": "view",
      "type": "function"
    },
    {
      "inputs": [
        {
          "internalType": "address",
          "name": "_to",
          "type": "address"
        },
        {
          "internalType": "uint256",
          "name": "_amount",
          "type": "uint256"
        }
      ],
      "name": "transfer",
      "outputs": [
        {
          "internalType": "bool",
          "name": "success",
          "type": "bool"
        }
      ],
      "stateMutability": "nonpayable",
      "type": "function"
    },
    {
      "inputs": [
        {
          "internalType": "address",
          "name": "_from",
          "type": "address"
        },
        {
          "internalType": "address",
          "name": "_to",
          "type": "address"
        },
        {
          "internalType": "uint256",
          "name": "_amount",
          "type": "uint256"
        }
      ],
      "name": "transferFrom",
      "outputs": [
        {
          "internalType": "bool",
          "name": "success",
          "type": "bool"
        }
      ],
      "stateMutability": "nonpayable",
      "type": "function"
    },
    {
      "inputs": [],
      "name": "receiveEther",
      "outputs": [
        {
          "internalType": "bool",
          "name": "",
          "type": "bool"
        }
      ],
      "stateMutability": "payable",
      "type": "function"
    },
    {
      "inputs": [
        {
          "internalType": "address",
          "name": "_recipient",
          "type": "address"
        },
        {
          "internalType": "uint256",
          "name": "_amount",
          "type": "uint256"
        },
        {
          "internalType": "string",
          "name": "_description",
          "type": "string"
        },
        {
          "internalType": "bytes",
          "name": "_transactionData",
          "type": "bytes"
        },
        {
          "internalType": "uint256",
          "name": "_debatingPeriod",
          "type": "uint256"
        },
        {
          "internalType": "bool",
          "name": "_newCurator",
          "type": "bool"
        }
      ],
      "name": "newProposal",
      "outputs": [
        {
          "internalType": "uint256",
          "name": "_proposalID",
          "type": "uint256"
        }
      ],
      "stateMutability": "payable",
      "type": "function"
    },
    {
      "inputs": [
        {
          "internalType": "uint256",
          "name": "_proposalID",
          "type": "uint256"
        },
        {
          "internalType": "address",
          "name": "_recipient",
          "type": "address"
        },
        {
          "internalType": "uint256",
          "name": "_amount",
          "type": "uint256"
        },
        {
          "internalType": "bytes",
          "name": "_transactionData",
          "type": "bytes"
        }
      ],
      "name": "checkProposalCode",
      "outputs": [
        {
          "internalType": "bool",
          "name": "_codeChecksOut",
          "type": "bool"
        }
      ],
      "stateMutability": "view",
      "type": "function"
    },
    {
      "inputs": [
        {
          "internalType": "uint256",
          "name": "_proposalID",
          "type": "uint256"
        },
        {
          "internalType": "bool",
          "name": "_supportsProposal",
          "type": "bool"
        }
      ],
      "name": "vote",
      "outputs": [],
      "stateMutability": "nonpayable",
      "type": "function"
    },
    {
      "inputs": [
        {
          "internalType": "uint256",
          "name": "_proposalID",
          "type": "uint256"
        },
        {
          "internalType": "bytes",
          "name": "_transactionData",
          "type": "bytes"
        }
      ],
      "name": "executeProposal",
      "outputs": [
        {
          "internalType": "bool",
          "name": "_success",
          "type": "bool"
        }
      ],
      "stateMutability": "nonpayable",
      "type": "function"
    },
    {
      "inputs": [
        {
          "internalType": "uint256",
          "name": "_proposalID",
          "type": "uint256"
        },
        {
          "internalType": "address",
          "name": "_newCurator",
          "type": "address"
        }
      ],
      "name": "splitDAO",
      "outputs": [
        {
          "internalType": "bool",
          "name": "_success",
          "type": "bool"
        }
      ],
      "stateMutability": "nonpayable",
      "type": "function"
    },
    {
      "inputs": [
        {
          "internalType": "bool",
          "name": "_toMembers",
          "type": "bool"
        }
      ],
      "name": "retrieveDAOReward",
      "outputs": [
        {
          "internalType": "bool",
          "name": "_success",
          "type": "bool"
        }
      ],
      "stateMutability": "nonpayable",
      "type": "function"
    },
    {
      "inputs": [],
      "name": "getMyReward",
      "outputs": [
        {
          "internalType": "bool",
          "name": "_success",
          "type": "bool"
        }
      ],
      "stateMutability": "nonpayable",
      "type": "function"
    },
    {
      "inputs": [
        {
          "internalType": "address",
          "name": "_to",
          "type": "address"
        },
        {
          "internalType": "uint256",
          "name": "_value",
          "type": "uint256"
        }
      ],
      "name": "transfer_2",
      "outputs": [
        {
          "internalType": "bool",
          "name": "success",
          "type": "bool"
        }
      ],
      "stateMutability": "nonpayable",
      "type": "function"
    },
    {
      "inputs": [
        {
          "internalType": "address",
          "name": "_to",
          "type": "address"
        },
        {
          "internalType": "uint256",
          "name": "_value",
          "type": "uint256"
        }
      ],
      "name": "transferWithoutReward",
      "outputs": [
        {
          "internalType": "bool",
          "name": "success",
          "type": "bool"
        }
      ],
      "stateMutability": "nonpayable",
      "type": "function"
    },
    {
      "inputs": [
        {
          "internalType": "address",
          "name": "_from",
          "type": "address"
        },
        {
          "internalType": "address",
          "name": "_to",
          "type": "address"
        },
        {
          "internalType": "uint256",
          "name": "_value",
          "type": "uint256"
        }
      ],
      "name": "transferFrom_2",
      "outputs": [
        {
          "internalType": "bool",
          "name": "success",
          "type": "bool"
        }
      ],
      "stateMutability": "nonpayable",
      "type": "function"
    },
    {
      "inputs": [
        {
          "internalType": "address",
          "name": "_from",
          "type": "address"
        },
        {
          "internalType": "address",
          "name": "_to",
          "type": "address"
        },
        {
          "internalType": "uint256",
          "name": "_value",
          "type": "uint256"
        }
      ],
      "name": "transferFromWithoutReward",
      "outputs": [
        {
          "internalType": "bool",
          "name": "success",
          "type": "bool"
        }
      ],
      "stateMutability": "nonpayable",
      "type": "function"
    },
    {
      "inputs": [
        {
          "internalType": "uint256",
          "name": "_proposalDeposit",
          "type": "uint256"
        }
      ],
      "name": "changeProposalDeposit",
      "outputs": [],
      "stateMutability": "nonpayable",
      "type": "function"
    },
    {
      "inputs": [
        {
          "internalType": "address",
          "name": "_recipient",
          "type": "address"
        },
        {
          "internalType": "bool",
          "name": "_allowed",
          "type": "bool"
        }
      ],
      "name": "changeAllowedRecipients",
      "outputs": [
        {
          "internalType": "bool",
          "name": "_success",
          "type": "bool"
        }
      ],
      "stateMutability": "nonpayable",
      "type": "function"
    },
    {
      "inputs": [],
      "name": "actualBalance",
      "outputs": [
        {
          "internalType": "uint256",
          "name": "_actualBalance",
          "type": "uint256"
        }
      ],
      "stateMutability": "view",
      "type": "function"
    },
    {
      "inputs": [],
      "name": "numberOfProposals",
      "outputs": [
        {
          "internalType": "uint256",
          "name": "_numberOfProposals",
          "type": "uint256"
        }
      ],
      "stateMutability": "view",
      "type": "function"
    },
    {
      "inputs": [
        {
          "internalType": "uint256",
          "name": "_proposalID",
          "type": "uint256"
        }
      ],
      "name": "getNewDAOAddress",
      "outputs": [
        {
          "internalType": "address",
          "name": "_newDAO",
          "type": "address"
        }
      ],
      "stateMutability": "view",
      "type": "function"
    },
    {
      "inputs": [],
      "name": "unblockMe",
      "outputs": [
        {
          "internalType": "bool",
          "name": "",
          "type": "bool"
        }
      ],
      "stateMutability": "nonpayable",
      "type": "function"
    }
  ],
  "bytecode": "0x608060405234620005f15762003ad7803803806200001d81620005f5565b92833981019061012081830312620005f1576200003a816200061b565b6020820151906001600160a01b0382168203620005f1576040830151926060810151946080820151956200007160a084016200061b565b60c08401519091906001600160401b038111620005f157836200009691860162000630565b60e08501519093906001600160401b038111620005f15761010091620000be91870162000630565b9401519760ff89168903620005f157620000da600a54620006bc565b601f8111620005b0575b507f546f6b656e20302e310000000000000000000000000000000000000000000012600a55601b80546001600160a01b031916331790555f5560015560028054610100600160a81b03191660089290921b610100600160a81b03169190911790556040516001600160401b03610313820190811190821117620003f75761031362003784823930610313820190815260016020820152819003604001905ff080156200040b57600380546001600160a01b0319166001600160a01b03929092169190911790558051906001600160401b038211620003f7578190620001cb600754620006bc565b601f811162000570575b50602090601f8311600114620004f5575f92620004e9575b50508160011b915f199060031b1c1916176007555b8051906001600160401b038211620003f757819062000223600854620006bc565b601f81116200049d575b50602090601f831160011462000422575f9262000416575b50508160011b915f199060031b1c1916176008555b6009805460ff9590951660ff19958616179055600f80546001600160a01b039283166001600160a01b031991821617909155601a805493909216921691909117905560185560405161031381018181106001600160401b03821117620003f757816040916103136200378483393081525f60208201520301905ff080156200040b57601380546001600160a01b0319166001600160a01b039290921691909117905560405161031381016001600160401b03811182821017620003f757816040916103136200378483393081525f60208201520301905ff080156200040b57601480546001600160a01b0319166001600160a01b0392831690811790915560135462000376926200036e91161515620006a0565b1515620006a0565b42600e556005600d55600c5468010000000000000000811015620003f757600181019081600c551015620003e357305f52601060205260405f2060018282541617905560018060a01b03600f54165f52600160405f20918254161790556040516130749081620007108239f35b634e487b7160e01b5f52603260045260245ffd5b634e487b7160e01b5f52604160045260245ffd5b6040513d5f823e3d90fd5b015190505f8062000245565b60085f90815293505f8051602062003ab783398151915291905b601f198416851062000481576001945083601f1981161062000468575b505050811b016008556200025a565b01515f1960f88460031b161c191690555f808062000459565b818101518355602094850194600190930192909101906200043c565b60085f52620004d7905f8051602062003ab7833981519152601f850160051c81019160208610620004de575b601f0160051c0190620006f7565b5f6200022d565b9091508190620004c9565b015190505f80620001ed565b60075f90815293505f8051602062003a9783398151915291905b601f198416851062000554576001945083601f198116106200053b575b505050811b0160075562000202565b01515f1960f88460031b161c191690555f80806200052c565b818101518355602094850194600190930192909101906200050f565b60075f52620005a9905f8051602062003a97833981519152601f850160051c81019160208610620004de57601f0160051c0190620006f7565b5f620001d5565b600a5f52620005ea90601f0160051c7fc65a7bb8d6351c1cf70c95a316cc6a92839c986682d98bc35f958f4883f9d2a890810190620006f7565b5f620000e4565b5f80fd5b6040519190601f01601f191682016001600160401b03811183821017620003f757604052565b51906001600160a01b0382168203620005f157565b919080601f84011215620005f15782516001600160401b038111620003f75760209062000666601f8201601f19168301620005f5565b92818452828287010111620005f1575f5b8181106200068c5750825f9394955001015290565b858101830151848201840152820162000677565b15620006a857565b634e487b7160e01b5f52600160045260245ffd5b90600182811c92168015620006ec575b6020831014620006d857565b634e487b7160e01b5f52602260045260245ffd5b91607f1691620006cc565b81811062000703575050565b5f8155600101620006f756fe60806040526004361015610067575b34610063575f546234bc00810180911161004f5742108061003a575b156100385761003833612e08565b005b506003546001600160a01b031633141561002a565b634e487b7160e01b5f52601160045260245ffd5b5f80fd5b5f3560e01c8063013cf08b14611e6757806306fdde0314611dbf578063095ea7b314611d4a5780630c3b7b9614611d2d5780630e70820314611d05578063149acf9a14611cdd57806318160ddd14611cc05780631f2dc5ef14611ca657806321b5b8dd14611c7e578063237e949214611c4057806323b872dd14611c275780632632bf2014611c0c578063313ce56714611bec5780633414580814611bcf57806339d1f90814611ba85780634b6753bc14611b8c5780634df6d6cc14611b4f5780634e10c3ee14611b25578063590e1ae31461193c5780635a3b7e4214611894578063612e45a314611458578063643f7cdd14611420578063674ed0661461140357806370a08231146113cb578063749f98891461133657806376afdf241461130f57806381f03fcb146112d757806382661dc414610c5757806382bf646414610c2f5780638b15a60514610c125780638d7af47314610be957806395d89b4114610b0857806396d7f3f514610aeb578063a1da2fb914610849578063a3912ec814610833578063a9059cbb1461080c578063b7bc2c84146107ea578063baac5300146107cc578063be7c29c11461078b578063c9d27afe14610610578063cae9ca51146104fa578063cc9ae3f6146104df578063cdef91d0146104a7578063dbde19881461047b578063dd62ed3e1461042e578063e33734fd146103cd578063e596219514610395578063e66f53b71461036d578063ea5b90d11461034a578063eceb2945146102c85763f8c80d260361000e5734610063575f3660031901126100635760025460405160089190911c6001600160a01b03168152602090f35b34610063576080366003190112610063576102e16120c4565b6064359067ffffffffffffffff821161006357610304602092369060040161212c565b9061033061033e6005610318600435611fd5565b500154936040519283918783019560443590876121b6565b03601f198101835282612046565b51902014604051908152f35b3461006357602061036361035d3661214a565b916129fb565b6040519015158152f35b34610063575f36600319011261006357600f546040516001600160a01b039091168152602090f35b34610063576020366003190112610063576001600160a01b036103b66120ae565b165f526017602052602060405f2054604051908152f35b34610063576020366003190112610063576004353033148015906103fb575b6103f6901561219b565b601855005b506103f6606461042461041147601954906126bb565b305f52601160205260405f20549061218e565b04821190506103ec565b34610063576040366003190112610063576104476120ae565b61044f6120c4565b9060018060a01b038091165f52600660205260405f2091165f52602052602060405f2054604051908152f35b3461006357602061036361048e3661214a565b916104a261049b82612730565b151561219b565b612d30565b34610063576020366003190112610063576001600160a01b036104c86120ae565b165f526011602052602060405f2054604051908152f35b34610063575f36600319011261006357602061036333612730565b34610063576060366003190112610063576105136120ae565b67ffffffffffffffff60443560243582821161006357366023830112156100635781600401359383851161006357366024868501011161006357335f52600660205260405f209060018060a01b031690815f526020528160405f2055803b15610063575f928360a460249488604051998a9788968794638f4ffcb160e01b8652336004870152828601523060448601526080606486015282608486015201848401378181018301849052601f01601f191681010301925af18015610605576105e1575b602060405160018152f35b81116105f15760405280806105d6565b634e487b7160e01b5f52604160045260245ffd5b6040513d5f823e3d90fd5b346100635760403660031901126100635760043561062c61217f565b90335f527f86abfce99b7dd908bec0169288797f85049ec73cbe046ed9de818fab3a497ae060206005815261066660405f2054151561219b565b61066f83611fd5565b50600b8101335f5280835260ff60405f2054168015610777575b8015610769575b61069a901561219b565b851561072e57335f526005835260405f20546106bb6009840191825461218e565b9055335f52825260405f20600160ff198254161790555b335f526017825260405f20549081155f14610704575050335f52601781528260405f20555b60405193151584523393a3005b61071360038092015492611fd5565b50015410156106f757335f52601781528260405f20556106f7565b50335f526005825260405f205461074a600a830191825461218e565b9055335f52600c8101825260405f20600160ff198254161790556106d2565b506003820154421015610690565b50600c8201835260ff60405f205416610689565b346100635760203660031901126100635760206107b560086107ae600435611fd5565b50016121ee565b50600301546040516001600160a01b039091168152f35b60203660031901126100635760206103636107e56120ae565b612e08565b34610063575f36600319011261006357602060ff600254166040519015158152f35b3461006357604036600319011261006357602061036361082a6120ae565b60243590612ca3565b5f36600319011261006357602060405160018152f35b346100635760208060031936011261006357600435801515810361006357335f526011825260405f205460018060a01b039081601454169060405163d2cc718f60e01b918282528682600481875afa908115610605575f91610aba575b6108b09250612705565b6108d36108c06012548093612200565b335f526015885260405f2054111561219b565b335f526011865260405f20546040519283528683600481875afa928315610605575f93610a87575b509061090d6109249361091293612705565b612200565b335f526015865260405f2054906126bb565b808231105f14610a8157508031925b15610a3d5750806014541690604051630e70820360e01b81528481600481335afa92831561060557859285925f956109fe575b5060405163011081c560e11b815294166001600160a01b0316600485015260248401919091528290815f816044810103925af18015610605576109b0915f916109d1575b5061219b565b335f52601582526109c660405f2091825461218e565b905560405160018152f35b6109f19150843d86116109f7575b6109e98183612046565b810190612718565b846109aa565b503d6109df565b92509290935081813d8311610a36575b610a188183612046565b8101031261006357518181168103610063579184918491905f610966565b503d610a0e565b60405163011081c560e11b81523360048201526024810184905291508390829060449082905f905af1801561060557610a7c915f916109d1575061219b565b6109b0565b92610933565b9250908683813d8311610ab3575b610a9f8183612046565b81010312610063579151919061090d6108fb565b503d610a95565b90508682813d8311610ae4575b610ad18183612046565b81010312610063576108b09151906108a6565b503d610ac7565b34610063575f366003190112610063576020600e54604051908152f35b34610063575f366003190112610063576040516008545f82610b298361200e565b918282526020936001908582821691825f14610bc9575050600114610b6e575b50610b5692500383612046565b610b6a604051928284938452830190612089565b0390f35b84915060085f527ff3f7a9fe364faab93b216da50a3214154f22a0a2b415b23a84c8169e8b636ee3905f915b858310610bb1575050610b56935082010185610b49565b80548389018501528794508693909201918101610b9a565b60ff191685820152610b5695151560051b8501019250879150610b499050565b34610063575f36600319011261006357600c545f19810190811161004f57602090604051908152f35b34610063575f366003190112610063576020601854604051908152f35b34610063575f366003190112610063576014546040516001600160a01b039091168152602090f35b3461006357604036600319011261006357600435610c736120c4565b335f526005602052610c8a60405f2054151561219b565b610c9382611fd5565b50916003830154908142109081156112bc575b610cce925081156112a4575b8115611294575b8115611279575b811561124e575b501561219b565b610cda600883016121ee565b50600301546001600160a01b031615610f50575b50335f526005602052610d2d610d1660405f2054610d0e600885016121ee565b505490612705565b6001610d24600885016121ee565b50015490612200565b6020610d3b600884016121ee565b506003015460405162baac5360e81b815233600482015292839160249183916001600160a01b03165af1801561060557610d7e915f91610f31575b50151561219b565b335f526005602052610e536008610db9610dac60405f20546002610da38588016121ee565b50015490612705565b6001610d248487016121ee565b92305f526015602052610de6610dd38560405f2054612705565b305f52601160205260405f205490612200565b93610df28383016121ee565b50600301546001600160a01b03165f9081526011602052604090208054610e1a90839061218e565b9055305f526011602052610e348160405f2054101561219b565b305f526011602052610e4b60405f209182546126bb565b9055016121ee565b50600301546001600160a01b03165f9081526015602052604090208054610e7b90839061218e565b9055305f526015602052610e958160405f2054101561219b565b305f526015602052610eac60405f209182546126bb565b9055335f5260056020525f60408120546040519081527fddf252ad1be2c89b69c2b068fc378daa952ba7f163c4a11628f55a4df523b3ef60203392a3610ef133612730565b50335f526005602052610f0a60405f2054600b546126bb565b600b55335f5260056020525f604081205560166020525f6040812055602060405160018152f35b610f4a915060203d6020116109f7576109e98183612046565b83610d76565b604051906001600160a01b0316807f9046fefd66f538ab35263248a44217dcb70e2eb2cd136629e141b8b8f9f03b605f80a2601a546001600160a01b031690426223988081019190821061004f57839160ff6009541691636c975f2360e11b845260048401525f60248401525f6044840152606483015260e060848301525f90600754610fdc8161200e565b908160e48601526001811690815f1461122f57506001146111d3575b508282036003190160a48401526008545f926110138261200e565b80825291600181169081156111af5750600114611150575b50505f8360209593819360c483015203925af1908115610605575f9161110e575b50600361105b600884016121ee565b500180546001600160a01b0319166001600160a01b0390921691909117905561109e611089600883016121ee565b50600301546001600160a01b0316151561219b565b6110b7476110b16019548092101561219b565b476126bb565b6110c3600883016121ee565b5055305f52601160205260405f205460026110e0600884016121ee565b500155600b5460016110f4600884016121ee565b50015560048101805461ff00191661010017905581610cee565b90506020813d602011611148575b8161112960209383612046565b8101031261006357516001600160a01b0381168103610063578261104c565b3d915061111c565b94925060085f527ff3f7a9fe364faab93b216da50a3214154f22a0a2b415b23a84c8169e8b636ee3905f915b818310611193575092940160200191505f8361102b565b805460208885018101919091528896509092019160010161117c565b60ff191660208381019190915292151560051b90910190910192505f90508361102b565b60075f9081529192507fa66cc928b5edb82af9bd49922954155ab7b0942694bea4ce44661d9a8736c6885b8183106112145750508201610104019086610ff8565b805461010484890101528694506020909201916001016111fe565b905061010492935060ff191682850152151560051b8301019086610ff8565b9050335f52601760205260405f205490811415908161126f575b5084610cc7565b9050151584611268565b9050335f52600b840160205260ff60405f2054161590610cc0565b600785015460ff16159150610cb9565b84546001600160a01b03858116911614159150610cb2565b905062239880820180921161004f57610cce91421190610ca6565b34610063576020366003190112610063576001600160a01b036112f86120ae565b165f526016602052602060405f2054604051908152f35b3461006357604036600319011261006357602061036361132d6120ae565b60243590612917565b346100635760403660031901126100635761134f6120ae565b7f73ad2a153c8b67991df9459024950b318a609782cee8c7eeda47b905f9baa91f602061137a61217f565b600f5490936001600160a01b0391611395908316331461219b565b1692835f52601082526113b78160405f209060ff801983541691151516179055565b6040519015158152a2602060405160018152f35b34610063576020366003190112610063576001600160a01b036113ec6120ae565b165f526005602052602060405f2054604051908152f35b34610063575f366003190112610063576020600d54604051908152f35b34610063576020366003190112610063576001600160a01b036114416120ae565b165f526015602052602060405f2054604051908152f35b60c03660031901126100635761146c6120ae565b67ffffffffffffffff60443581811161006357366023820112156100635761149e9036906024816004013591016120f6565b90606435818111610063576114b790369060040161212c565b9160a4351591821560a4350361006357335f5260056020526114de60405f2054151561219b565b60a4358061183c575b6114f1901561219b565b828061181e575b611502901561219b565b6115136249d400608435111561219b565b60ff60025416158015611814575b8015611801575b611532901561219b565b611549426115426084354261218e565b101561219b565b6115553033141561219b565b600c5493600185146117f8575b600160401b8510156105f15760018501600c5561157e85611fd5565b505061158985611fd5565b5080546001600160a01b0319166001600160a01b03881617815560243560018201558351909281116105f1576115c2600284015461200e565b601f81116117b4575b50806020601f821160011461174b575f91611740575b508160011b915f199060031b1c19161760028301555b60018060a01b038254169061161e60018401546103306040519384926020840196876121b6565b51902060058201556116326084354261218e565b600382015560048101600160ff1982541617905561166160a435600783019060ff801983541691151516179055565b60a4356116fd575b916020946116f27f5790de2c279e58269b93b12828f56fd5f2bc8ad15e61ce08572585c81a38756f9385600d889701336bffffffffffffffffffffffff60a01b8254161790556006349101556116c13460195461218e565b60195560405193849360018060a01b0316845260243589850152156040840152608060608401526080830190612089565b0390a2604051908152f35b909160088201948554600160401b8110156105f1576001810190818855101561172c575f959095529190611669565b634e487b7160e01b5f52603260045260245ffd5b9050840151886115e1565b9150600284015f5260205f205f925b601f198316841061179c576001935082601f19811610611784575b5050811b0160028301556115f7565b8601515f1960f88460031b161c191690558880611775565b8681015182556020938401936001909201910161175a565b600284015f5260205f20601f830160051c8101602084106117f1575b601f830160051c820181106117e65750506115cb565b5f81556001016117d0565b50806117d0565b42600e55611562565b5060185434108015611528575082611528565b505f544210611521565b5061182885612b49565b15806114f8575062127500608435106114f8565b506024351580159061188a575b8015611873575b801561186a575b806114e7575062093a80608435106114e7565b50341515611857565b50600f546001600160a01b03868116911614611850565b5083511515611849565b34610063575f36600319011261006357604051600a545f826118b58361200e565b918282526020936001908582821691825f14610bc95750506001146118e15750610b5692500383612046565b849150600a5f527fc65a7bb8d6351c1cf70c95a316cc6a92839c986682d98bc35f958f4883f9d2a8905f915b858310611924575050610b56935082010185610b49565b8054838901850152879450869390920191810161190d565b34610063575f366003190112610063575f54421180611b18575b61195c57005b60035460405163d2cc718f60e01b80825260209290916001600160a01b039182169081318582600481865afa918215610605575f92611ae9575b501015611a38575b505f808093508092601b541633825260048652604082205490828215611a2f575bf16119c657005b600490335f5281815260405f20546040519081527fbb28353e4598c3b9199101a66e0989549b659a59a54d2c27fbb183f1932c8e6d823392a2335f5260058152611a1660405f2054600b546126bb565b600b55335f52600581525f6040812055525f6040812055005b506108fc6119bf565b6040519283528383600481845afa80156106055784935f91611ab8575b5060405163011081c560e11b815230600482015260248101919091529290839060449082905f905af1918215610605575f92839283928392611a9b575b5092505061199e565b611ab190873d89116109f7576109e98183612046565b5086611a92565b84819592503d8311611ae2575b611acf8183612046565b810103126100635791518392905f611a55565b503d611ac5565b9091508581813d8311611b11575b611b018183612046565b8101031261006357519086611996565b503d611af7565b5060ff6002541615611956565b34610063576040366003190112610063576020610363611b436120ae565b61082a61049b33612730565b34610063576020366003190112610063576001600160a01b03611b706120ae565b165f526010602052602060ff60405f2054166040519015158152f35b34610063575f3660031901126100635760205f54604051908152f35b34610063575f366003190112610063576020611bc747601954906126bb565b604051908152f35b34610063575f366003190112610063576020601254604051908152f35b34610063575f36600319011261006357602060ff60095416604051908152f35b34610063575f36600319011261006357602061036333612c52565b34610063576020610363611c3a3661214a565b91612d30565b346100635760403660031901126100635760243567ffffffffffffffff811161006357610363611c76602092369060040161212c565b60043561224d565b34610063575f366003190112610063576003546040516001600160a01b039091168152602090f35b34610063575f366003190112610063576020611bc7612fcd565b34610063575f366003190112610063576020600b54604051908152f35b34610063575f36600319011261006357601a546040516001600160a01b039091168152602090f35b34610063575f366003190112610063576013546040516001600160a01b039091168152602090f35b34610063575f366003190112610063576020600154604051908152f35b3461006357604036600319011261006357611d636120ae565b602435335f52600660205260405f209160018060a01b031691825f526020528060405f20556040519081527f8c5be1e5ebec7d5bd14f71427d1e84f3dd0314c0f7b2291e5b200ac8c7c3b92560203392a3602060405160018152f35b34610063575f366003190112610063576040516007545f82611de08361200e565b918282526020936001908582821691825f14610bc9575050600114611e0c5750610b5692500383612046565b84915060075f527fa66cc928b5edb82af9bd49922954155ab7b0942694bea4ce44661d9a8736c688905f915b858310611e4f575050610b56935082010185610b49565b80548389018501528794508693909201918101611e38565b346100635760208060031936011261006357600435600c5481101561006357611e8f90611fd5565b5060018060a01b03908181541660019182810154936002820193604051945f91815491611ebb8361200e565b80895292828116908115611fb45750600114611f79575b50505095611ee4856040980386612046565b600383015494600484015460ff600586015491611f366006880154948360078a0154169660098a015498600d600a8c01549b0154169a8e519e8f9e8f90610180948594835282015201528c0190612089565b9860608b0152818116151560808b015260081c16151560a089015260c088015260e087015215156101008601526101208501526101408401526101608301520390f35b5f908152898120909993505b828a10611fa157505050611ee485826040998201019298611ed2565b8054888b01850152988301988101611f85565b60ff1916898c0152505050151560051b850187019050611ee4856040611ed2565b600c5481101561172c57600e90600c5f52027fdf6966c971051c3d54ec59162606531493a51404a002842f56009d7e5cf4a8c701905f90565b90600182811c9216801561203c575b602083101461202857565b634e487b7160e01b5f52602260045260245ffd5b91607f169161201d565b90601f8019910116810190811067ffffffffffffffff8211176105f157604052565b5f5b8381106120795750505f910152565b818101518382015260200161206a565b906020916120a281518092818552858086019101612068565b601f01601f1916010190565b600435906001600160a01b038216820361006357565b602435906001600160a01b038216820361006357565b67ffffffffffffffff81116105f157601f01601f191660200190565b929192612102826120da565b916121106040519384612046565b829481845281830111610063578281602093845f960137010152565b9080601f8301121561006357816020612147933591016120f6565b90565b6060906003190112610063576001600160a01b0390600435828116810361006357916024359081168103610063579060443590565b60243590811515820361006357565b9190820180921161004f57565b156121a257565b634e487b7160e01b5f52600160045260245ffd5b9091603493926bffffffffffffffffffffffff199060601b16825260148201526121e98251809360208685019101612068565b010190565b80541561172c575f5260205f20905f90565b811561220a570490565b634e487b7160e01b5f52601260045260245ffd5b3d15612248573d9061222f826120da565b9161223d6040519384612046565b82523d5f602084013e565b606090565b5f92918361225a83611fd5565b509060ff6007830154165f146126b257622398805b6004938484019160ff835416908161269b575b5061268b5760038401544210801561267f575b8015612671575b8015612635575b6122ad901561219b565b83546001600160a01b0391906122c4908316612b49565b156125fb5760019586860193845447986122e1601954809b6126bb565b82116125f4575b6009890191825494612300600a8c019687549061218e565b9b8751918083101592836125d0575b50826125a9575b82612572575b82612535575b5081612503575b506124fb575b61233890612c07565b8a10156124b2575b86549361234c85612c07565b8b101592836124a5575b50508161249d575b506123a8575b5050505050505060407fdfc78bdca8e3e0b18c16c5c99323c6cb9eb5e00afde190b4e7273f5158702b0791612398846126c8565b81519086151582526020820152a2565b869a50948084936123fd9382979660409a7fdfc78bdca8e3e0b18c16c5c99323c6cb9eb5e00afde190b4e7273f5158702b079c9a61010061ff0019825416179055541690602083519301915af16109aa61221e565b80600199541630811415918261248e575b8261247f575b82612470575b82612461575b5050612430575b82948180612364565b6124579161244c8583549230815260116020522091825461218e565b90555460125461218e565b6012555f80612427565b600f5416141590505f80612420565b6003548116821415925061241a565b60145481168214159250612414565b6013548116821415925061240e565b90505f61235e565b5490541091505f80612356565b6124d7888080808d60068c600d83015416910154908282156124f2575bf1151561219b565b42600e556005600b54048a1115612340576005600d55612340565b506108fc6124cf565b88915061232f565b61252d915061251561252891476126bb565b308c52601160205260408c20549061218e565b612c07565b8b105f612329565b90915087516003101561255f575060238701516001600160f81b031916600f60f91b14905f612322565b634e487b7160e01b8b526032905260248afd5b91508751600210156125965760228801516001600160f81b0319908116149161231c565b634e487b7160e01b8b526032825260248bfd5b91508751600110156125965760218801516001600160f81b031916603760f81b1491612316565b909250156125965760208801516001600160f81b031916600d60fb1b14915f61230f565b50866122e8565b5082969750829583955083949250906126156006926126c8565b600d830154169101549082821561262c575bf15090565b506108fc612627565b506122ad600585015460018060a01b038654168361266560018901546103306040519384926020840196876121b6565b519020141590506122a3565b5060ff825460081c1661229c565b5060ff82541615612295565b50509394505050612147906126c8565b6126aa9150600386015461218e565b42115f612282565b620d2f0061226f565b9190820391821161004f57565b6126d190611fd5565b50600481019060ff8254166126ec575b50805460ff19169055565b60066126fc9101546019546126bb565b6019555f6126e1565b8181029291811591840414171561004f57565b90816020910312610063575180151581036100635790565b60018060a01b03908181165f90808252602090600582526040938484205495601354169585519063d2cc718f60e01b9182815285816004818c5afa9081156128de5787916128e8575b5061278391612705565b906127a6612794600b548094612200565b8588526016875288882054111561219b565b8386526005855286862054875191825285826004818c5afa9182156128de57908693929188926128a6575b5061283f949261090d6127f8936127e793612705565b8588526016845288882054906126bb565b808931105f1461289e575087319788915b885163011081c560e11b81526001600160a01b039091166004820152602481019290925290928391908290889082906044820190565b03925af19081156128945791612864859492601694612870989791612877575061219b565b8352522091825461218e565b9055600190565b61288e9150843d86116109f7576109e98183612046565b5f6109aa565b85513d86823e3d90fd5b978891612809565b809250849193943d83116128d7575b6128bf8183612046565b810103126128d3575185929161283f6127d1565b8680fd5b503d6128b5565b88513d89823e3d90fd5b90508581813d8311612910575b6128ff8183612046565b810103126128d35751612783612779565b503d6128f5565b9060ff6002541691826129f0575b826129de575b826129cc575b826129b8575b826129a5575b82612994575b50501561294f57600190565b60405162461bcd60e51b815260206004820152601c60248201527f5472616e7366657220636f6e646974696f6e73206e6f74206d65742e000000006044820152606490fd5b61299e9250612ca3565b5f80612943565b91506129b2818333612acb565b9161293d565b6001600160a01b0381163014159250612937565b91506129d782612c52565b1591612931565b91506129e933612c52565b159161292b565b5f5442119250612925565b919060ff600254169283612ac0575b83612aae575b83612a9c575b83612a88575b83612a75575b83612a63575b5050505f14612a3657600190565b60405162461bcd60e51b815260206004820152600560248201526422b93937b960d91b6044820152606490fd5b612a6d9350612d30565b5f8080612a28565b9250612a82828285612acb565b92612a22565b6001600160a01b0382163014159350612a1c565b9250612aa781612c52565b1592612a16565b9250612ab983612c52565b1592612a10565b5f5442119350612a0a565b612870919260409160018060a01b0380911694612b09612af75f94888652601660205286862054612705565b87855260056020528585205490612200565b958084526016602052612b218585205488111561219b565b83526016602052838320612b368782546126bb565b905516815260166020522091825461218e565b60018060a01b03809116905f91808352601060205260ff604084205416918215612b7b575b5050156121475750600190565b60035416908114915081612b92575b505f80612b6e565b600491506020601254916040519384809263d2cc718f60e01b82525afa918215612bfc578392612bc5575b50115f612b8a565b9091506020813d8211612bf4575b81612be060209383612046565b81010312612bf05751905f612bbd565b8280fd5b3d9150612bd3565b6040513d85823e3d90fd5b612c1f600b54612c19600d5482612200565b92612705565b90612c3061041147601954906126bb565b918260030292600384040361004f5761214792612c4c91612200565b9061218e565b6001600160a01b03165f818152601760205260408120549091908015612c9e57612c7d600391611fd5565b500154421115612c97578152601760205280604081205590565b5050600190565b505090565b335f52600560205260405f2080548381101580612d27575b15612d1f5783612cca916126bb565b905560018060a01b031690815f52600560205260405f20612cec82825461218e565b90556040519081527fddf252ad1be2c89b69c2b068fc378daa952ba7f163c4a11628f55a4df523b3ef60203392a3600190565b505050505f90565b50831515612cbb565b60018060a01b03809116915f93838552602091600583526040908282882054101580612def575b80612de6575b15612ddd577fddf252ad1be2c89b69c2b068fc378daa952ba7f163c4a11628f55a4df523b3ef948291169687815260058552818120612d9d85825461218e565b905586815260058552818120612db48582546126bb565b905586815260068552818120338252855220612dd18382546126bb565b905551908152a3600190565b50505050505090565b50821515612d5d565b5060068452818720338852845282828820541015612d57565b5f908154421080612fc4575b80612f94575b612e24901561219b565b6014340234810460141434151715612f8057612e4890612e42612fcd565b90612200565b60018060a01b0390838080808560035416612e6386346126bb565b905af1612e6e61221e565b5015612f445760406020927fdbccb92686efceafb9bb7e0394df7f58f71b954061b81afb57109bf247d3d75a94169485815260058452818120612eb284825461218e565b9055612ec083600b5461218e565b600b558581526004845220612ed634825461218e565b9055604051908152a2600b5460015481101580612f37575b612ef9575b50600190565b60207ff381a3e2428fdda36615919e8d9c35878d9eb0cf85ac6edf575088e80e4c147e91600160ff196002541617600255604051908152a15f612ef3565b5060ff6002541615612eee565b60405162461bcd60e51b81526020600482015260146024820152732330b4b632b2103a379039b2b7321022ba3432b960611b6044820152606490fd5b634e487b7160e01b83526011600452602483fd5b50600254612e249060081c6001600160a01b03168015908115612fba575b509050612e1a565b905033145f612fb2565b50341515612e14565b5f8054621274ff19810190808211612f805742821115612fef57505050601490565b620545ff198101908111612f8057421015613037576130126201518091426126bb565b046014019081601411613023575090565b634e487b7160e01b81526011600452602490fd5b5050601e9056fea2646970667358221220a1785bd7597c40b38baf296c90e1d558556bf3b1be41436e4f2e7a23906e030e64736f6c6343000815003360803461008b57601f61031338819003918201601f19168301916001600160401b0383118484101761008f57808492604094855283398101031261008b5780516001600160a01b038116919082900361008b57602001519081151580920361008b575f549160ff60a01b9060a01b169160018060a81b03191617175f5560405161026f90816100a48239f35b5f80fd5b634e487b7160e01b5f52604160045260245ffdfe6040608081526004361015610036575b5060015434810180911161002257600155005b634e487b7160e01b5f52601160045260245ffd5b5f90813560e01c80630221038a146100da57806318bdc79a146100b65780638da5cb5b1461008f5763d2cc718f1461006e575061000f565b3461008b578160031936011261008b576020906001549051908152f35b5080fd5b503461008b578160031936011261008b57905490516001600160a01b039091168152602090f35b503461008b578160031936011261008b5760ff6020925460a01c1690519015158152f35b508060031936011261008b57600435916001600160a01b0383168303610113575061010a60209260243590610116565b90519015158152f35b80fd5b5f80546001600160a01b039291908381163381148015929061022f575b821561020c575b50506101f8578080808087865af13d156101f35767ffffffffffffffff3d8181116101df5760405191601f8201601f19908116603f01168301908111838210176101cb5760405281528260203d92013e5b156101c457507f9735b0cb909f3d21d5c16bbcccd272d85fa11446f6d679f6ecb170d2dabfecfc916020916040519485521692a2600190565b9250505090565b634e487b7160e01b85526041600452602485fd5b634e487b7160e01b84526041600452602484fd5b61018b565b634e487b7160e01b81526001600452602490fd5b60a01c60ff16915081610222575b505f8061013a565b905083831614155f61021a565b341515925061013356fea26469706673582212208d5dc1e22a70f460e6fcad2fd7bfb5807ce90b2005fcd5f64a2adfa840a774c564736f6c63430008150033a66cc928b5edb82af9bd49922954155ab7b0942694bea4ce44661d9a8736c688f3f7a9fe364faab93b216da50a3214154f22a0a2b415b23a84c8169e8b636ee3",
  "immutableReferences": {},
  "source": "/*\nThis file is part of the DAO.\n\nThe DAO is free software: you can redistribute it and/or modify\nit under the terms of the GNU lesser General Public License as published by\nthe Free Software Foundation, either version 3 of the License, or\n(at your option) any later version.\n\nThe DAO is distributed in the hope that it will be useful,\nbut WITHOUT ANY WARRANTY; without even the implied warranty of\nMERCHANTABILITY or FITNESS FOR A PARTICULAR PURPOSE.  See the\nGNU lesser General Public License for more details.\n\nYou should have received a copy of the GNU lesser General Public License\nalong with the DAO.  If not, see <http://www.gnu.org/licenses/>.\n*/\n\n\n/*\nStandard smart contract for a Decentralized Autonomous Organization (DAO)\nto automate organizational governance and decision-making.\n*/\n\n// SPDX-License-Identifier: UNLICENSED\n\nimport \"./TokenCreation.sol\";\nimport \"./ManagedAccount.sol\";\n\npragma solidity ^0.8.0;\n\nabstract contract DAOInterface is Token{\n\n    // The amount of days for which people who try to participate in the\n    // creation by calling the fallback function will still get their ether back\n    uint constant creationGracePeriod = 40 days;\n    // The minimum debate period that a generic proposal can have\n    uint constant minProposalDebatePeriod = 2 weeks;\n    // The minimum debate period that a split proposal can have\n    uint constant minSplitDebatePeriod = 1 weeks;\n    // Period of days inside which it's possible to execute a DAO split\n    uint constant splitExecutionPeriod = 27 days;\n    // Period of time after which the minimum Quorum is halved\n    uint constant quorumHalvingPeriod = 25 weeks;\n    // Period after which a proposal is closed\n    // (used in the case `executeProposal` fails because it throws)\n    uint constant executeProposalPeriod = 10 days;\n    // Denotes the maximum proposal deposit that can be given. It is given as\n    // a fraction of total Ether spent plus balance of the DAO\n    uint constant maxDepositDivisor = 100;\n\n    // Proposals to spend the DAO's ether or to choose a new Curator\n    Proposal[] public proposals;\n    // The quorum needed for each proposal is partially calculated by\n    // totalSupply / minQuorumDivisor\n    uint public minQuorumDivisor;\n    // The unix time of the last time quorum was reached on a proposal\n    uint public lastTimeMinQuorumMet;\n\n    // Address of the curator\n    address public curator;\n    // The whitelist: List of addresses the DAO is allowed to send ether to\n    mapping (address => bool) public allowedRecipients;\n\n    // Tracks the addresses that own Reward Tokens. Those addresses can only be\n    // DAOs that have split from the original DAO. Conceptually, Reward Tokens\n    // represent the proportion of the rewards that the DAO has the right to\n    // receive. These Reward Tokens are generated when the DAO spends ether.\n    mapping (address => uint) public rewardToken;\n    // Total supply of rewardToken\n    uint public totalRewardToken;\n\n    // The account used to manage the rewards which are to be distributed to the\n    // DAO Token Holders of this DAO\n    ManagedAccount public rewardAccount;\n\n    // The account used to manage the rewards which are to be distributed to\n    // any DAO that holds Reward Tokens\n    ManagedAccount public DAOrewardAccount;\n\n    // Amount of rewards (in wei) already paid out to a certain DAO\n    mapping (address => uint) public DAOpaidOut;\n\n    // Amount of rewards (in wei) already paid out to a certain address\n    mapping (address => uint) public paidOut;\n    // Map of addresses blocked during a vote (not allowed to transfer DAO\n    // tokens). The address points to the proposal ID.\n    mapping (address => uint) public blocked;\n\n    // The minimum deposit (in wei) required to submit any proposal that is not\n    // requesting a new Curator (no deposit is required for splits)\n    uint public proposalDeposit;\n\n    // the accumulated sum of all current proposal deposits\n    uint sumOfProposalDeposits;\n\n    // Contract that is able to create a new DAO (with the same code as\n    // this one), used for splits\n    DAO_Creator public daoCreator;\n\n    // A proposal with `newCurator == false` represents a transaction\n    // to be issued by this DAO\n    // A proposal with `newCurator == true` represents a DAO split\n    struct Proposal {\n        // The address where the `amount` will go to if the proposal is accepted\n        // or if `newCurator` is true, the proposed Curator of\n        // the new DAO).\n        address recipient;\n        // The amount to transfer to `recipient` if the proposal is accepted.\n        uint amount;\n        // A plain text description of the proposal\n        string description;\n        // A unix timestamp, denoting the end of the voting period\n        uint votingDeadline;\n        // True if the proposal's votes have yet to be counted, otherwise False\n        bool open;\n        // True if quorum has been reached, the votes have been counted, and\n        // the majority said yes\n        bool proposalPassed;\n        // A hash to check validity of a proposal\n        bytes32 proposalHash;\n        // Deposit in wei the creator added when submitting their proposal. It\n        // is taken from the msg.value of a newProposal call.\n        uint proposalDeposit;\n        // True if this proposal is to assign a new Curator\n        bool newCurator;\n        // Data needed for splitting the DAO\n        SplitData[] splitData;\n        // Number of Tokens in favor of the proposal\n        uint yea;\n        // Number of Tokens opposed to the proposal\n        uint nay;\n        // Simple mapping to check if a shareholder has voted for it\n        mapping (address => bool) votedYes;\n        // Simple mapping to check if a shareholder has voted against it\n        mapping (address => bool) votedNo;\n        // Address of the shareholder who created the proposal\n        address payable creator;\n    }\n\n    // Used only in the case of a newCurator proposal.\n    struct SplitData {\n        // The balance of the current DAO minus the deposit at the time of split\n        uint splitBalance;\n        // The total amount of DAO Tokens in existence at the time of split.\n        uint totalSupply;\n        // Amount of Reward Tokens owned by the DAO at the time of split.\n        uint rewardToken;\n        // The new DAO contract created at the time of split.\n        DAO newDAO;\n    }\n\n    // Used to restrict access to certain functions to only DAO Token Holders\n    modifier onlyTokenholders virtual {\n        require(balanceOf(msg.sender) > 0, \"Caller is not a token holder.\");\n        _;\n    }\n\n    /// @dev Constructor setting the Curator and the address\n    /// for the contract able to create another DAO as well as the parameters\n    /// for the DAO Token Creation\n    /// @param _curator The Curator\n    /// @param _daoCreator The contract able to (re)create this DAO\n    /// @param _proposalDeposit The deposit to be paid for a regular proposal\n    /// @param _minTokensToCreate Minimum required wei-equivalent tokens\n    ///        to be created for a successful DAO Token Creation\n    /// @param _closingTime Date (in Unix time) of the end of the DAO Token Creation\n    /// @param _privateCreation If zero the DAO Token Creation is open to public, a\n    /// non-zero address means that the DAO Token Creation is only for the address\n    /// @param _tokenName The name that the DAO's token will have\n    /// @param _tokenSymbol The ticker symbol that this DAO token should have\n    /// @param _decimalPlaces The number of decimal places that the token is\n    ///        counted from.\n    // This is the constructor: it can not be overloaded so it is commented out\n    //  function DAO(\n        //  address _curator,\n        //  DAO_Creator _daoCreator,\n        //  uint _proposalDeposit,\n        //  uint _minTokensToCreate,\n        //  uint _closingTime,\n        //  address _privateCreation\n        //  string _tokenName,\n        //  string _tokenSymbol,\n        //  uint8 _decimalPlaces\n    //  );\n\n    /// @notice Create Token with `msg.sender` as the beneficiary\n    /// Removed return \n    fallback () external virtual;\n\n\n    /// @dev This function is used to send ether back\n    /// to the DAO, it can also be used to receive payments that should not be\n    /// counted as rewards (donations, grants, etc.)\n    /// @return bool Whether the DAO received the ether successfully\n    function receiveEther() public payable virtual returns(bool);\n\n\n    /// @notice `msg.sender` creates a proposal to send `_amount` Wei to\n    /// `_recipient` with the transaction data `_transactionData`. If\n    /// `_newCurator` is true, then this is a proposal that splits the\n    /// DAO and sets `_recipient` as the new DAO's Curator.\n    /// @param _recipient Address of the recipient of the proposed transaction\n    /// @param _amount Amount of wei to be sent with the proposed transaction\n    /// @param _description String describing the proposal\n    /// @param _transactionData Data of the proposed transaction\n    /// @param _debatingPeriod Time used for debating a proposal, at least 2\n    /// weeks for a regular proposal, 10 days for new Curator proposal\n    /// @param _newCurator Bool defining whether this proposal is about\n    /// a new Curator or not\n    /// @return _proposalID The proposal ID. Needed for voting on the proposal\n    function newProposal(\n        address _recipient,\n        uint _amount,\n        string memory _description,\n        bytes memory _transactionData,\n        uint _debatingPeriod,\n        bool _newCurator\n    ) public virtual payable returns (uint _proposalID);\n    // ) onlyTokenholders public virtual returns (uint _proposalID);\n\n    /// @notice Check that the proposal with the ID `_proposalID` matches the\n    /// transaction which sends `_amount` with data `_transactionData`\n    /// to `_recipient`\n    /// @param _proposalID The proposal ID\n    /// @param _recipient The recipient of the proposed transaction\n    /// @param _amount The amount of wei to be sent in the proposed transaction\n    /// @param _transactionData The data of the proposed transaction\n    /// @return _codeChecksOut Whether the proposal ID matches the transaction data or not\n    function checkProposalCode(\n        uint _proposalID,\n        address _recipient,\n        uint _amount,\n        bytes memory _transactionData\n    ) public view virtual returns (bool _codeChecksOut);\n\n    /// @notice Vote on proposal `_proposalID` with `_supportsProposal`\n    /// @param _proposalID The proposal ID\n    /// @param _supportsProposal Yes/No - support of the proposal\n    function vote(uint _proposalID, bool _supportsProposal) external virtual;\n\n    /// @notice Checks whether proposal `_proposalID` with transaction data\n    /// `_transactionData` has been voted for or rejected, and executes the\n    /// transaction in the case it has been voted for.\n    /// @param _proposalID The proposal ID\n    /// @param _transactionData The data of the proposed transaction\n    /// @return _success Whether the proposed transaction has been executed or not\n    function executeProposal(\n        uint _proposalID,\n        bytes memory _transactionData\n    ) public virtual returns (bool _success);\n\n    /// @notice ATTENTION! I confirm to move my remaining ether to a new DAO\n    /// with `_newCurator` as the new Curator, as has been\n    /// proposed in proposal `_proposalID`. This will burn my tokens. This can\n    /// not be undone and will split the DAO into two DAO's, with two\n    /// different underlying tokens.\n    /// @param _proposalID The proposal ID\n    /// @param _newCurator The new Curator of the new DAO\n    /// @dev This function, when called for the first time for this proposal,\n    /// will create a new DAO and send the sender's portion of the remaining\n    /// ether and Reward Tokens to the new DAO. It will also burn the DAO Tokens\n    /// of the sender.\n    function splitDAO(\n        uint _proposalID,\n        address _newCurator\n    ) external virtual returns (bool _success);\n\n    /// @dev can only be called by the DAO itself through a proposal\n    /// updates the contract of the DAO by sending all ether and rewardTokens\n    /// to the new DAO. The new DAO needs to be approved by the Curator\n    /// @param _newContract the address of the new contract\n    function newContract(address _newContract) internal virtual;\n\n\n    /// @notice Add a new possible recipient `_recipient` to the whitelist so\n    /// that the DAO can send transactions to them (using proposals)\n    /// @param _recipient New recipient address\n    /// @dev Can only be called by the current Curator\n    /// @return _success Whether successful or not\n    function changeAllowedRecipients(address _recipient, bool _allowed) external virtual returns (bool _success);\n\n\n    /// @notice Change the minimum deposit required to submit a proposal\n    /// @param _proposalDeposit The new proposal deposit\n    /// @dev Can only be called by this DAO (through proposals with the\n    /// recipient being this DAO itself)\n    function changeProposalDeposit(uint _proposalDeposit) external virtual;\n\n    /// @notice Move rewards from the DAORewards managed account\n    /// @param _toMembers If true rewards are moved to the actual reward account\n    ///                   for the DAO. If not then it's moved to the DAO itself\n    /// @return _success Whether the call was successful\n    function retrieveDAOReward(bool _toMembers) external virtual returns (bool _success);\n\n    /// @notice Get my portion of the reward that was sent to `rewardAccount`\n    /// @return _success Whether the call was successful\n    function getMyReward() public virtual returns(bool _success);\n\n    /// @notice Withdraw `_account`'s portion of the reward from `rewardAccount`\n    /// to `_account`'s balance\n    /// @return _success Whether the call was successful\n    function withdrawRewardFor(address _account) internal virtual returns (bool _success);\n\n    /// @notice Send `_amount` tokens to `_to` from `msg.sender`. Prior to this\n    /// getMyReward() is called.\n    /// @param _to The address of the recipient\n    /// @param _amount The amount of tokens to be transfered\n    /// @return success Whether the transfer was successful or not\n    function transferWithoutReward(address _to, uint256 _amount) public virtual returns (bool success);\n\n    /// @notice Send `_amount` tokens to `_to` from `_from` on the condition it\n    /// is approved by `_from`. Prior to this getMyReward() is called.\n    /// @param _from The address of the sender\n    /// @param _to The address of the recipient\n    /// @param _amount The amount of tokens to be transfered\n    /// @return success Whether the transfer was successful or not\n    function transferFromWithoutReward(\n        address _from,\n        address _to,\n        uint256 _amount\n    ) public virtual returns (bool success);\n\n    /// @notice Doubles the 'minQuorumDivisor' in the case quorum has not been\n    /// achieved in 52 weeks\n    /// @return _success Whether the change was successful or not\n    function halveMinQuorum() internal virtual returns (bool _success);\n\n    /// @return _numberOfProposals total number of proposals ever created\n    function numberOfProposals() public view virtual returns (uint _numberOfProposals);\n\n    /// @param _proposalID Id of the new curator proposal\n    /// @return _newDAO Address of the new DAO\n    function getNewDAOAddress(uint _proposalID) public view virtual returns (address _newDAO);\n\n    /// @param _account The address of the account which is checked.\n    /// @return Whether the account is blocked (not allowed to transfer tokens) or not.\n    function isBlocked(address _account) internal virtual returns (bool);\n\n    /// @notice If the caller is blocked by a proposal whose voting deadline\n    /// has exprired then unblock him.\n    /// @return Whether the account is blocked (not allowed to transfer tokens) or not.\n    function unblockMe() public virtual returns (bool);\n\n    event ProposalAdded(\n        uint indexed proposalID,\n        address recipient,\n        uint amount,\n        bool newCurator,\n        string description\n    );\n    event Voted(uint indexed proposalID, bool position, address indexed voter);\n    event ProposalTallied(uint indexed proposalID, bool result, uint quorum);\n    event NewCurator(address indexed _newCurator);\n    event AllowedRecipientChanged(address indexed _recipient, bool _allowed);\n}\n\n// The DAO contract itself\ncontract DAO is DAOInterface, TokenCreation {\n\n    // Modifier that allows only shareholders to vote and create new proposals\n    modifier onlyTokenholders override {\n        assert(!(balanceOf(msg.sender) == 0));\n            _;\n    }\n\n    constructor(\n        address _curator,\n        DAO_Creator _daoCreator,\n        uint _proposalDeposit,\n        uint _minTokensToCreate,\n        uint _closingTime,\n        address _privateCreation,\n        string memory _tokenName, \n        string memory _tokenSymbol,\n        uint8 _decimalPlaces\n    ) TokenCreation(\n        _minTokensToCreate, \n        _closingTime, \n        _privateCreation, \n        _tokenName, \n        _tokenSymbol,\n        _decimalPlaces) {\n\n        curator = _curator;\n        daoCreator = _daoCreator;\n        proposalDeposit = _proposalDeposit;\n        rewardAccount = new ManagedAccount(address(this), false);\n        DAOrewardAccount = new ManagedAccount(address(this), false);\n        assert(!(address(rewardAccount) == address(0)));\n        assert(!(address(DAOrewardAccount) == address(0)));\n        lastTimeMinQuorumMet = block.timestamp;\n        minQuorumDivisor = 5; // sets the minimal quorum to 20%\n        proposals.push(); // avoids a proposal with ID 0 because it is used\n\n        allowedRecipients[address(this)] = true;\n        allowedRecipients[curator] = true;\n    }\n\n    function receiveEther() public payable override returns (bool) {\n        return true;\n    }\n\n    fallback () external override {\n        if (block.timestamp < closingTime + creationGracePeriod && msg.sender != address(extraBalance))\n            createTokenProxy(msg.sender);\n        else\n             receiveEther();\n           \n    }\n\n    function newProposal(\n        address _recipient,\n        uint _amount,\n        string memory _description,\n        bytes memory _transactionData,\n        uint _debatingPeriod,\n        bool _newCurator\n    ) onlyTokenholders public override payable returns (uint _proposalID) {\n\n        // Sanity check\n        assert(!(_newCurator && (\n            _amount != 0\n            || _transactionData.length != 0\n            || _recipient == curator\n            || msg.value > 0\n            || _debatingPeriod < minSplitDebatePeriod)) );\n            \n            assert(!(\n            !_newCurator\n            && (!isRecipientAllowed(_recipient) || (_debatingPeriod <  minProposalDebatePeriod))\n        ));\n\n        assert(!(_debatingPeriod > 8 weeks));\n\n        assert(!(!isFueled\n            || block.timestamp < closingTime\n            || (msg.value < proposalDeposit && !_newCurator)));\n\n        assert(!(block.timestamp + _debatingPeriod < block.timestamp)); // prevents overflow\n            \n\n        // to prevent a 51% attacker to convert the ether into deposit\n        assert(!(msg.sender == address(this)));\n           \n\n        // to prevent curator from halving quorum before first proposal\n        if (proposals.length == 1) // initial length is 1 (see constructor)\n            lastTimeMinQuorumMet = block.timestamp;\n\n        _proposalID = proposals.length;\n        proposals.push();\n        Proposal storage p = proposals[_proposalID];\n        p.recipient = _recipient;\n        p.amount = _amount;\n        p.description = _description;\n        p.proposalHash = keccak256(abi.encodePacked(p.recipient, p.amount, _transactionData));\n        p.votingDeadline = block.timestamp + _debatingPeriod;\n        p.open = true;\n        //p.proposalPassed = False; // that's default\n        p.newCurator = _newCurator;\n        if (_newCurator)\n            p.splitData.push();\n        p.creator = payable(msg.sender);\n        p.proposalDeposit = msg.value;\n\n        sumOfProposalDeposits += msg.value;\n\n        emit ProposalAdded(\n            _proposalID,\n            _recipient,\n            _amount,\n            _newCurator,\n            _description\n        );\n    }\n\n\n    function checkProposalCode(\n        uint _proposalID,\n        address _recipient,\n        uint _amount,\n        bytes memory _transactionData\n    )  public view override returns (bool _codeChecksOut) {\n        Proposal storage p = proposals[_proposalID];\n        return p.proposalHash == keccak256(abi.encodePacked(_recipient, _amount, _transactionData));\n    }\n\n\n    function vote(uint _proposalID, bool _supportsProposal) onlyTokenholders external override {\n\n        Proposal storage p = proposals[_proposalID];\n        assert(!(p.votedYes[msg.sender]\n            || p.votedNo[msg.sender]\n            || block.timestamp >= p.votingDeadline));\n\n        if (_supportsProposal) {\n            p.yea += balances[msg.sender];\n            p.votedYes[msg.sender] = true;\n        } else {\n            p.nay += balances[msg.sender];\n            p.votedNo[msg.sender] = true;\n        }\n\n        if (blocked[msg.sender] == 0) {\n            blocked[msg.sender] = _proposalID;\n        } else if (p.votingDeadline > proposals[blocked[msg.sender]].votingDeadline) {\n            // this proposal's voting deadline is further into the future than\n            // the proposal that blocks the sender so make it the blocker\n            blocked[msg.sender] = _proposalID;\n        }\n\n        emit Voted(_proposalID, _supportsProposal, msg.sender);\n    }\n\n\n    function executeProposal(\n        uint _proposalID,\n        bytes memory _transactionData\n    ) public override returns (bool _success) {\n\n        Proposal storage p = proposals[_proposalID];\n\n        uint waitPeriod = p.newCurator\n            ? splitExecutionPeriod\n            : executeProposalPeriod;\n        // If we are over deadline and waiting period, assert proposal is closed\n        if (p.open && block.timestamp > p.votingDeadline + waitPeriod) {\n            closeProposal(_proposalID);\n            return false;\n        }\n\n        // Check if the proposal can be executed\n        assert (!(block.timestamp < p.votingDeadline  // has the voting deadline arrived?\n            // Have the votes been counted?\n            || !p.open\n            || p.proposalPassed // anyone trying to call us recursively?\n            // Does the transaction code match the proposal?\n            || p.proposalHash != keccak256(abi.encodePacked(p.recipient, p.amount, _transactionData)))); \n\n        // If the curator removed the recipient from the whitelist, close the proposal\n        // in order to free the deposit and allow unblocking of voters\n        if (!isRecipientAllowed(p.recipient)) {\n            closeProposal(_proposalID);\n            p.creator.send(p.proposalDeposit);\n            return false;\n        }\n\n        bool proposalCheck = true;\n\n        if (p.amount > actualBalance())\n            proposalCheck = false;\n\n        uint quorum = p.yea + p.nay;\n\n        // require 53% for calling newContract()\n        if (_transactionData.length >= 4 && _transactionData[0] == 0x68\n            && _transactionData[1] == 0x37 && _transactionData[2] == 0xff\n            && _transactionData[3] == 0x1e\n            && quorum < minQuorum(actualBalance() + rewardToken[address(this)])) {\n\n                proposalCheck = false;\n        }\n\n        if (quorum >= minQuorum(p.amount)) {\n            assert(!(!p.creator.send(p.proposalDeposit)));\n                \n\n            lastTimeMinQuorumMet = block.timestamp;\n            // set the minQuorum to 20% again, in the case it has been reached\n            if (quorum > totalSupply / 5)\n                minQuorumDivisor = 5;\n        }\n\n        // Execute result\n        if (quorum >= minQuorum(p.amount) && p.yea > p.nay && proposalCheck) {\n            // we are setting this here before the CALL() value transfer to\n            // assure that in the case of a malicious recipient contract trying\n            // to call executeProposal() recursively money can't be transferred\n            // multiple times out of the DAO\n            p.proposalPassed = true;\n\n            (bool success, ) = p.recipient.call{value: p.amount}(_transactionData);\n            assert(success);\n               \n\n            _success = true;\n\n            // only create reward tokens when ether is not sent to the DAO itself and\n            // related addresses. Proxy addresses should be forbidden by the curator.\n            if (p.recipient != address(this) && p.recipient != address(rewardAccount)\n                && p.recipient != address(DAOrewardAccount)\n                && p.recipient != address(extraBalance)\n                && p.recipient != address(curator)) {\n\n                rewardToken[address(this)] += p.amount;\n                totalRewardToken += p.amount;\n            }\n        }\n\n        closeProposal(_proposalID);\n\n        // Initiate event\n        emit ProposalTallied(_proposalID, _success, quorum);\n    }\n\n\n    function closeProposal(uint _proposalID) internal {\n        Proposal storage p = proposals[_proposalID];\n        if (p.open)\n            sumOfProposalDeposits -= p.proposalDeposit;\n        p.open = false;\n    }\n\n    function splitDAO(\n        uint _proposalID,\n        address _newCurator\n    ) onlyTokenholders external override returns (bool _success) {\n\n        Proposal storage p = proposals[_proposalID];\n\n        // Sanity check\n\n        assert(!(block.timestamp < p.votingDeadline  // has the voting deadline arrived?\n            //The request for a split expires XX days after the voting deadline\n            || block.timestamp > p.votingDeadline + splitExecutionPeriod\n            // Does the new Curator address match?\n            || p.recipient != _newCurator\n            // Is it a new curator proposal?\n            || !p.newCurator\n            // Have you voted for this split?\n            || !p.votedYes[msg.sender]\n            // Did you already vote on another proposal?\n            || (blocked[msg.sender] != _proposalID && blocked[msg.sender] != 0) ));\n\n        // If the new DAO doesn't exist yet, create the new DAO and store the\n        // current split data\n        if (address(p.splitData[0].newDAO) == address(0)) {\n            p.splitData[0].newDAO = createNewDAO(_newCurator);\n            // Call depth limit reached, etc.\n            assert (!(address(p.splitData[0].newDAO) == address(0)));\n            // should never happen\n            assert(!(address(this).balance < sumOfProposalDeposits));\n            p.splitData[0].splitBalance = actualBalance();\n            p.splitData[0].rewardToken = rewardToken[address(this)];\n            p.splitData[0].totalSupply = totalSupply;\n            p.proposalPassed = true;\n        }\n\n        // Move ether and assign new Tokens\n        uint fundsToBeMoved =\n            (balances[msg.sender] * p.splitData[0].splitBalance) /\n            p.splitData[0].totalSupply;\n        assert(!(p.splitData[0].newDAO.createTokenProxy{value : fundsToBeMoved}(msg.sender) == false));\n           \n\n\n        // Assign reward rights to new DAO\n        uint rewardTokenToBeMoved =\n            (balances[msg.sender] * p.splitData[0].rewardToken) /\n            p.splitData[0].totalSupply;\n\n        uint paidOutToBeMoved = DAOpaidOut[address(this)] * rewardTokenToBeMoved /\n            rewardToken[address(this)];\n\n        rewardToken[address(p.splitData[0].newDAO)] += rewardTokenToBeMoved;\n        assert(!(rewardToken[address(this)] < rewardTokenToBeMoved));\n        rewardToken[address(this)] -= rewardTokenToBeMoved;\n\n        DAOpaidOut[address(p.splitData[0].newDAO)] += paidOutToBeMoved;\n        assert(!(DAOpaidOut[address(this)] < paidOutToBeMoved));\n        DAOpaidOut[address(this)] -= paidOutToBeMoved;\n\n        // Burn DAO Tokens\n        emit Transfer(msg.sender, address(0), balances[msg.sender]);\n        withdrawRewardFor(msg.sender); // be nice, and get his rewards\n        totalSupply -= balances[msg.sender];\n        balances[msg.sender] = 0;\n        paidOut[msg.sender] = 0;\n        return true;\n    }\n\n    function newContract(address _newContract) internal override{\n        if (msg.sender != address(this) || !allowedRecipients[_newContract]) return;\n        // move all ether\n        (bool success, ) = _newContract.call{value: address(this).balance}(\"\");\n        assert(success);\n\n        //move all reward tokens\n        rewardToken[_newContract] += rewardToken[address(this)];\n        rewardToken[address(this)] = 0;\n        DAOpaidOut[_newContract] += DAOpaidOut[address(this)];\n        DAOpaidOut[address(this)] = 0;\n    }\n\n\n    function retrieveDAOReward(bool _toMembers) external override returns (bool _success) {\n        DAO dao = DAO(payable(msg.sender));\n\n        assert(!((rewardToken[msg.sender] * DAOrewardAccount.accumulatedInput()) /\n            totalRewardToken < DAOpaidOut[msg.sender]));\n       \n\n        uint reward =\n            (rewardToken[msg.sender] * DAOrewardAccount.accumulatedInput()) /\n            totalRewardToken - DAOpaidOut[msg.sender];\n\n        reward = address(DAOrewardAccount).balance < reward ? address(DAOrewardAccount).balance : reward;\n\n        if(_toMembers) {\n            assert(DAOrewardAccount.payOut(address(dao.rewardAccount()), reward));    \n            }\n        else {\n            assert(DAOrewardAccount.payOut(address(dao), reward));\n        }\n        DAOpaidOut[msg.sender] += reward;\n        return true;\n    }\n\n    function getMyReward() public override returns (bool _success) {\n        return withdrawRewardFor(msg.sender);\n    }\n\n\n    function withdrawRewardFor(address _account) internal override returns (bool _success) {\n        assert(!((balanceOf(_account) * rewardAccount.accumulatedInput()) / totalSupply < paidOut[_account]));\n\n        uint reward =\n            (balanceOf(_account) * rewardAccount.accumulatedInput()) / totalSupply - paidOut[_account];\n\n        reward = address(rewardAccount).balance < reward ? address(rewardAccount).balance : reward;\n\n  //This is where the attack occurred!!\n  //--------------------------------------\n\n        assert(rewardAccount.payOut(_account, reward));\n        paidOut[_account] += reward;      \n\n //--------------------------------------\n\n        return true;\n    }\n\n\n    function transfer_2(address _to, uint256 _value) public override returns (bool success) {\n        if (isFueled\n            && block.timestamp > closingTime\n            && !isBlocked(msg.sender)\n            && !isBlocked(_to)\n            && _to != address(this)\n            && transferPaidOut(msg.sender, _to, _value)\n            && super.transfer(_to, _value)) {\n\n            return true;\n        } else {\n            revert(\"Transfer conditions not met.\");\n        }\n    }\n\n\n    function transferWithoutReward(address _to, uint256 _value) public override returns (bool success) {\n        assert(!(!getMyReward()));\n        return transfer(_to, _value);\n    }\n\n\n    function transferFrom_2(address _from, address _to, uint256 _value) public override returns (bool success) {\n        if (isFueled\n            && block.timestamp > closingTime\n            && !isBlocked(_from)\n            && !isBlocked(_to)\n            && _to != address(this)\n            && transferPaidOut(_from, _to, _value)\n            && super.transferFrom(_from, _to, _value)) {\n\n            return true;\n        } else {\n            revert(\"Error\");\n        }\n    }\n\n\n    function transferFromWithoutReward(\n        address _from,\n        address _to,\n        uint256 _value\n    ) public override returns (bool success) {\n\n        assert(!(!withdrawRewardFor(_from)));\n        return transferFrom(_from, _to, _value);\n    }\n\n\n    function transferPaidOut(\n        address _from,\n        address _to,\n        uint256 _value\n    ) internal returns (bool success) {\n\n        uint transferPaidOut = paidOut[_from] * _value / balanceOf(_from);\n        assert(! (transferPaidOut > paidOut[_from]));\n        paidOut[_from] -= transferPaidOut;\n        paidOut[_to] += transferPaidOut;\n        return true;\n    }\n\n\n    function changeProposalDeposit(uint _proposalDeposit) external override {\n       assert(!(msg.sender != address(this) || _proposalDeposit > (actualBalance() + rewardToken[address(this)])\n            / maxDepositDivisor)) ;\n        proposalDeposit = _proposalDeposit;\n    }\n\n\n    function changeAllowedRecipients(address _recipient, bool _allowed) external override returns (bool _success) {\n        assert(!(msg.sender != curator));\n        allowedRecipients[_recipient] = _allowed;\n        emit AllowedRecipientChanged(_recipient, _allowed);\n        return true;\n    }\n\n\n    function isRecipientAllowed(address _recipient) internal returns (bool _isAllowed) {\n        if (allowedRecipients[_recipient]\n            || (_recipient == address(extraBalance)\n                // only allowed when at least the amount held in the\n                // extraBalance account has been spent from the DAO\n                && totalRewardToken > extraBalance.accumulatedInput()))\n            return true;\n        else\n            return false;\n    }\n\n    function actualBalance() public view returns (uint _actualBalance) {\n        return address(this).balance - sumOfProposalDeposits;\n    }\n\n\n    function minQuorum(uint _value) internal view returns (uint _minQuorum) {\n        // minimum of 20% and maximum of 53.33%\n        return totalSupply / minQuorumDivisor +\n            (_value * totalSupply) / (3 * (actualBalance() + rewardToken[address(this)]));\n    }\n\n\n    function halveMinQuorum() internal override returns (bool _success) {\n        // this can only be called after `quorumHalvingPeriod` has passed or at anytime after\n        // fueling by the curator with a delay of at least `minProposalDebatePeriod`\n        // between the calls\n        if ((lastTimeMinQuorumMet < (block.timestamp - quorumHalvingPeriod) || msg.sender == curator)\n            && lastTimeMinQuorumMet < (block.timestamp - minProposalDebatePeriod)\n            && block.timestamp >= closingTime\n            && proposals.length > 1) {\n            lastTimeMinQuorumMet = block.timestamp;\n            minQuorumDivisor *= 2;\n            return true;\n        } else {\n            return false;\n        }\n    }\n\n    function createNewDAO(address _newCurator) internal returns (DAO _newDAO) {\n        emit NewCurator(_newCurator);\n        return daoCreator.createDAO(\n            _newCurator,\n            0,\n            0,\n            block.timestamp + splitExecutionPeriod,\n            name,\n            symbol,\n            decimals\n        );\n    }\n\n    function numberOfProposals() public view override returns (uint _numberOfProposals) {\n        // Don't count index 0. It's used by isBlocked() and exists from start\n        return proposals.length - 1;\n    }\n\n    function getNewDAOAddress(uint _proposalID) public view override returns (address _newDAO) {\n        return address(proposals[_proposalID].splitData[0].newDAO);\n    }\n\n    function isBlocked(address _account) internal override returns (bool) {\n        if (blocked[_account] == 0)\n            return false;\n        Proposal storage p = proposals[blocked[_account]];\n        if (block.timestamp > p.votingDeadline) {\n            blocked[_account] = 0;\n            return false;\n        } else {\n            return true;\n        }\n    }\n\n    function unblockMe() public override returns (bool) {\n        return isBlocked(msg.sender);\n    }\n}\n\ncontract DAO_Creator {\n    function createDAO(\n        address _curator,\n        uint _proposalDeposit,\n        uint _minTokensToCreate,\n        uint _closingTime,\n        string memory _tokenName, \n        string memory _tokenSymbol,\n        uint8 _decimalPlaces\n    ) public returns (DAO _newDAO) {\n\n        return new DAO(\n            _curator,\n            DAO_Creator(this),\n            _proposalDeposit,\n            _minTokensToCreate,\n            _closingTime,\n            msg.sender,\n            _tokenName, \n            _tokenSymbol,\n            _decimalPlaces\n        );\n    }\n}",
  "sourcePath": "/Users/MacHD/Desktop/TheDAO/DAO-Transpile/DAO-Transpilation2/contracts/DAO.sol",
  "compiler": {
    "name": "solc",
    "version": "0.8.21+commit.d9974bed.Emscripten.clang"
  },
  "schemaVersion": "3.4.16",
  "updatedAt": "2024-03-08T16:09:51.113Z",
  "devdoc": {
    "kind": "dev",
    "methods": {
      "allowance(address,address)": {
        "params": {
          "_owner": "The address of the account owning tokens",
          "_spender": "The address of the account able to transfer the tokens"
        },
        "returns": {
          "remaining": "Amount of remaining tokens of _owner that _spender is allowed to spend"
        }
      },
      "approve(address,uint256)": {
        "params": {
          "_amount": "The amount of tokens to be approved for transfer",
          "_spender": "The address of the account able to transfer the tokens"
        },
        "returns": {
          "success": "Whether the approval was successful or not"
        }
      },
      "balanceOf(address)": {
        "params": {
          "_owner": "The address from which the balance will be retrieved"
        },
        "returns": {
          "balance": "The balance"
        }
      },
      "changeAllowedRecipients(address,bool)": {
        "details": "Can only be called by the current Curator",
        "params": {
          "_recipient": "New recipient address"
        },
        "returns": {
          "_success": "Whether successful or not"
        }
      },
      "changeProposalDeposit(uint256)": {
        "details": "Can only be called by this DAO (through proposals with the recipient being this DAO itself)",
        "params": {
          "_proposalDeposit": "The new proposal deposit"
        }
      },
      "checkProposalCode(uint256,address,uint256,bytes)": {
        "params": {
          "_amount": "The amount of wei to be sent in the proposed transaction",
          "_proposalID": "The proposal ID",
          "_recipient": "The recipient of the proposed transaction",
          "_transactionData": "The data of the proposed transaction"
        },
        "returns": {
          "_codeChecksOut": "Whether the proposal ID matches the transaction data or not"
        }
      },
      "createTokenProxy(address)": {
        "params": {
          "_tokenHolder": "The address of the Tokens's recipient"
        },
        "returns": {
          "success": "Whether the token creation was successful"
        }
      },
      "divisor()": {
        "returns": {
          "divisor": "The divisor used to calculate the token creation rate during the creation phase"
        }
      },
      "executeProposal(uint256,bytes)": {
        "params": {
          "_proposalID": "The proposal ID",
          "_transactionData": "The data of the proposed transaction"
        },
        "returns": {
          "_success": "Whether the proposed transaction has been executed or not"
        }
      },
      "getMyReward()": {
        "returns": {
          "_success": "Whether the call was successful"
        }
      },
      "getNewDAOAddress(uint256)": {
        "params": {
          "_proposalID": "Id of the new curator proposal"
        },
        "returns": {
          "_newDAO": "Address of the new DAO"
        }
      },
      "newProposal(address,uint256,string,bytes,uint256,bool)": {
        "params": {
          "_amount": "Amount of wei to be sent with the proposed transaction",
          "_debatingPeriod": "Time used for debating a proposal, at least 2 weeks for a regular proposal, 10 days for new Curator proposal",
          "_description": "String describing the proposal",
          "_newCurator": "Bool defining whether this proposal is about a new Curator or not",
          "_recipient": "Address of the recipient of the proposed transaction",
          "_transactionData": "Data of the proposed transaction"
        },
        "returns": {
          "_proposalID": "The proposal ID. Needed for voting on the proposal"
        }
      },
      "numberOfProposals()": {
        "returns": {
          "_numberOfProposals": "total number of proposals ever created"
        }
      },
      "receiveEther()": {
        "details": "This function is used to send ether back to the DAO, it can also be used to receive payments that should not be counted as rewards (donations, grants, etc.)",
        "returns": {
          "_0": "bool Whether the DAO received the ether successfully"
        }
      },
      "retrieveDAOReward(bool)": {
        "params": {
          "_toMembers": "If true rewards are moved to the actual reward account                   for the DAO. If not then it's moved to the DAO itself"
        },
        "returns": {
          "_success": "Whether the call was successful"
        }
      },
      "splitDAO(uint256,address)": {
        "details": "This function, when called for the first time for this proposal, will create a new DAO and send the sender's portion of the remaining ether and Reward Tokens to the new DAO. It will also burn the DAO Tokens of the sender.",
        "params": {
          "_newCurator": "The new Curator of the new DAO",
          "_proposalID": "The proposal ID"
        }
      },
      "transfer(address,uint256)": {
        "params": {
          "_amount": "The amount of tokens to be transferred",
          "_to": "The address of the recipient"
        },
        "returns": {
          "success": "Whether the transfer was successful or not"
        }
      },
      "transferFrom(address,address,uint256)": {
        "params": {
          "_amount": "The amount of tokens to be transferred",
          "_from": "The address of the origin of the transfer",
          "_to": "The address of the recipient"
        },
        "returns": {
          "success": "Whether the transfer was successful or not"
        }
      },
      "unblockMe()": {
        "returns": {
          "_0": "Whether the account is blocked (not allowed to transfer tokens) or not."
        }
      },
      "vote(uint256,bool)": {
        "params": {
          "_proposalID": "The proposal ID",
          "_supportsProposal": "Yes/No - support of the proposal"
        }
      }
    },
    "version": 1
  },
  "userdoc": {
    "kind": "user",
    "methods": {
      "approve(address,uint256)": {
        "notice": "`msg.sender` approves `_spender` to spend `_amount` tokens on its behalf"
      },
      "approveAndCall(address,uint256,bytes)": {
        "notice": "Allow another contract to spend some tokens in your behalf "
      },
      "changeAllowedRecipients(address,bool)": {
        "notice": "Add a new possible recipient `_recipient` to the whitelist so that the DAO can send transactions to them (using proposals)"
      },
      "changeProposalDeposit(uint256)": {
        "notice": "Change the minimum deposit required to submit a proposal"
      },
      "checkProposalCode(uint256,address,uint256,bytes)": {
        "notice": "Check that the proposal with the ID `_proposalID` matches the transaction which sends `_amount` with data `_transactionData` to `_recipient`"
      },
      "createTokenProxy(address)": {
        "notice": "Create Token with `_tokenHolder` as the initial owner of the Token"
      },
      "executeProposal(uint256,bytes)": {
        "notice": "Checks whether proposal `_proposalID` with transaction data `_transactionData` has been voted for or rejected, and executes the transaction in the case it has been voted for."
      },
      "getMyReward()": {
        "notice": "Get my portion of the reward that was sent to `rewardAccount`"
      },
      "name()": {
        "notice": "Public variables of the token, all used for display "
      },
      "newProposal(address,uint256,string,bytes,uint256,bool)": {
        "notice": "`msg.sender` creates a proposal to send `_amount` Wei to `_recipient` with the transaction data `_transactionData`. If `_newCurator` is true, then this is a proposal that splits the DAO and sets `_recipient` as the new DAO's Curator."
      },
      "refund()": {
        "notice": "Refund `msg.sender` in the case the Token Creation did not reach its minimum fueling goal"
      },
      "retrieveDAOReward(bool)": {
        "notice": "Move rewards from the DAORewards managed account"
      },
      "splitDAO(uint256,address)": {
        "notice": "ATTENTION! I confirm to move my remaining ether to a new DAO with `_newCurator` as the new Curator, as has been proposed in proposal `_proposalID`. This will burn my tokens. This can not be undone and will split the DAO into two DAO's, with two different underlying tokens."
      },
      "totalSupply()": {
        "notice": "Total amount of tokens"
      },
      "transfer(address,uint256)": {
        "notice": "Send `_amount` tokens to `_to` from `msg.sender`"
      },
      "transferFrom(address,address,uint256)": {
        "notice": "Send `_amount` tokens to `_to` from `_from` on the condition it is approved by `_from`"
      },
      "unblockMe()": {
        "notice": "If the caller is blocked by a proposal whose voting deadline has exprired then unblock him."
      },
      "vote(uint256,bool)": {
        "notice": "Vote on proposal `_proposalID` with `_supportsProposal`"
      }
    },
    "version": 1
  }
}