{
  "contractName": "DAOTokenCreationProxyTransferer",
  "abi": [
    {
      "inputs": [
        {
          "internalType": "address",
          "name": "_owner",
          "type": "address"
        },
        {
          "internalType": "address",
          "name": "_dao",
          "type": "address"
        }
      ],
      "stateMutability": "nonpayable",
      "type": "constructor"
    },
    {
      "stateMutability": "nonpayable",
      "type": "fallback"
    },
    {
      "inputs": [],
      "name": "dao",
      "outputs": [
        {
          "internalType": "address",
          "name": "",
          "type": "address"
        }
      ],
      "stateMutability": "view",
      "type": "function"
    },
    {
      "inputs": [],
      "name": "owner",
      "outputs": [
        {
          "internalType": "address",
          "name": "",
          "type": "address"
        }
      ],
      "stateMutability": "view",
      "type": "function"
    }
  ],
  "bytecode": "0x608080604052346100805760408161040a803803809161001f8285610084565b8339810103126100805761003e6020610037836100bb565b92016100bb565b5f80546001600160a01b039384166001600160a01b031991821617909155600180549290931691161790556100716100cf565b60405161021990816101f18239f35b5f80fd5b601f909101601f19168101906001600160401b038211908210176100a757604052565b634e487b7160e01b5f52604160045260245ffd5b51906001600160a01b038216820361008057565b47156101ee576001546040516312d9d4ef60e21b81526001600160a01b03918216906020908181600481865afa9081156101b6575f916101c1575b50421191821561013d575b505061011e5750565b5f808080938154164790828215610134575bf150565b506108fc610130565b9080925047916024855f5416604051948593849262baac5360e81b845260048401525af19182156101b6575f92610179575b5050155f80610115565b81813d83116101af575b61018d8183610084565b810103126101ab57519081151582036101a857505f8061016f565b80fd5b5080fd5b503d610183565b6040513d5f823e3d90fd5b908282813d83116101e7575b6101d78183610084565b810103126101a85750515f61010a565b503d6101cd565b56fe6080806040526004361015610023575b503461001f5761001d6100c9565b005b5f80fd5b5f90813560e01c9081634162169f1461006a5750638da5cb5b0361000f5734610067578060031936011261006757546040516001600160a01b039091168152602090f35b80fd5b90503461008f578160031936011261008f576001546001600160a01b03168152602090f35b5080fd5b90601f8019910116810190811067ffffffffffffffff8211176100b557604052565b634e487b7160e01b5f52604160045260245ffd5b47156101e1576001546040516312d9d4ef60e21b81526001600160a01b03918216906020908181600481865afa9081156101a9575f916101b4575b504211918215610137575b50506101185750565b5f80808093815416479082821561012e575bf150565b506108fc61012a565b9080925047916024855f5416604051948593849262baac5360e81b845260048401525af19182156101a9575f92610173575b5050155f8061010f565b81813d83116101a2575b6101878183610093565b8101031261008f575190811515820361006757505f80610169565b503d61017d565b6040513d5f823e3d90fd5b908282813d83116101da575b6101ca8183610093565b810103126100675750515f610104565b503d6101c0565b56fea26469706673582212206e49e6e5212c656f28a8eea320accccde8dbad22144f962204e6bfd21246150f64736f6c63430008150033",
  "immutableReferences": {},
  "source": "/*\nThis file is part of the DAO.\n\nThe DAO is free software: you can redistribute it and/or modify\nit under the terms of the GNU lesser General Public License as published by\nthe Free Software Foundation, either version 3 of the License, or\n(at your option) any later version.\n\nThe DAO is distributed in the hope that it will be useful,\nbut WITHOUT ANY WARRANTY; without even the implied warranty of\nMERCHANTABILITY or FITNESS FOR A PARTICULAR PURPOSE.  See the\nGNU lesser General Public License for more details.\n\nYou should have received a copy of the GNU lesser General Public License\nalong with the DAO.  If not, see <http://www.gnu.org/licenses/>.\n*/\n\n\n/*\n * By default, token creation can be executed on behalf of another address using\n * the TokenCreation.sol createTokenProxy() function This contract is used as a\n * fall back in case an exchange doesn't implement the \"add data to a\n * transaction\" feature in a timely manner, preventing it from calling\n * createTokenProxy().  Calling this contract automatically triggers a call to\n * createTokenProxy() using the correct parameters for a given participant in\n * the token creation.  A unique instance of such a contract would have to be\n * deployed per participant, usually using a middleware layer on a webserver,\n * for example.\n*/\n\n// SPDX-License-Identifier: UNLICENSED\n\nimport \"./TokenCreation.sol\";\n\npragma solidity ^0.8.0;\n\ncontract DAOTokenCreationProxyTransferer {\n    address public owner;\n    address public dao;\n\n    //constructor\n    constructor(address _owner, address _dao) {\n        owner = _owner;\n        dao = _dao;\n\n        // just in case somebody already added values to this address,\n        // we will forward it right now.\n        sendValues();\n    }\n\n    // default-function called when values are sent.\n    fallback () external{\n       sendValues();\n    }\n\n    function sendValues() internal{\n        if (address(this).balance == 0)\n            return;\n\n        TokenCreationInterface fueling = TokenCreationInterface(dao);\n        if (block.timestamp > fueling.closingTime() ||\n            !fueling.createTokenProxy{value : address(this).balance}(owner)) {\n\n           payable(owner).send(address(this).balance);\n        }\n    }\n}",
  "sourcePath": "/Users/MacHD/Desktop/TheDAO/DAO-Transpile/DAO-Transpilation2/contracts/DAOTokenCreationProxyTransferer.sol",
  "compiler": {
    "name": "solc",
    "version": "0.8.21+commit.d9974bed.Emscripten.clang"
  },
  "schemaVersion": "3.4.16",
  "updatedAt": "2024-03-07T21:03:06.786Z",
  "devdoc": {
    "kind": "dev",
    "methods": {},
    "version": 1
  },
  "userdoc": {
    "kind": "user",
    "methods": {},
    "version": 1
  }
}