{
  "contractName": "ManagedAccount",
  "abi": [
    {
      "inputs": [
        {
          "internalType": "address",
          "name": "_owner",
          "type": "address"
        },
        {
          "internalType": "bool",
          "name": "_payOwnerOnly",
          "type": "bool"
        }
      ],
      "stateMutability": "nonpayable",
      "type": "constructor"
    },
    {
      "anonymous": false,
      "inputs": [
        {
          "indexed": true,
          "internalType": "address",
          "name": "_recipient",
          "type": "address"
        },
        {
          "indexed": false,
          "internalType": "uint256",
          "name": "_amount",
          "type": "uint256"
        }
      ],
      "name": "PayOut",
      "type": "event"
    },
    {
      "stateMutability": "payable",
      "type": "fallback"
    },
    {
      "inputs": [],
      "name": "accumulatedInput",
      "outputs": [
        {
          "internalType": "uint256",
          "name": "",
          "type": "uint256"
        }
      ],
      "stateMutability": "view",
      "type": "function"
    },
    {
      "inputs": [],
      "name": "owner",
      "outputs": [
        {
          "internalType": "address",
          "name": "",
          "type": "address"
        }
      ],
      "stateMutability": "view",
      "type": "function"
    },
    {
      "inputs": [],
      "name": "payOwnerOnly",
      "outputs": [
        {
          "internalType": "bool",
          "name": "",
          "type": "bool"
        }
      ],
      "stateMutability": "view",
      "type": "function"
    },
    {
      "inputs": [
        {
          "internalType": "address",
          "name": "_recipient",
          "type": "address"
        },
        {
          "internalType": "uint256",
          "name": "_amount",
          "type": "uint256"
        }
      ],
      "name": "payOut",
      "outputs": [
        {
          "internalType": "bool",
          "name": "",
          "type": "bool"
        }
      ],
      "stateMutability": "payable",
      "type": "function"
    }
  ],
  "bytecode": "0x60803461008b57601f61031338819003918201601f19168301916001600160401b0383118484101761008f57808492604094855283398101031261008b5780516001600160a01b038116919082900361008b57602001519081151580920361008b575f549160ff60a01b9060a01b169160018060a81b03191617175f5560405161026f90816100a48239f35b5f80fd5b634e487b7160e01b5f52604160045260245ffdfe6040608081526004361015610036575b5060015434810180911161002257600155005b634e487b7160e01b5f52601160045260245ffd5b5f90813560e01c80630221038a146100da57806318bdc79a146100b65780638da5cb5b1461008f5763d2cc718f1461006e575061000f565b3461008b578160031936011261008b576020906001549051908152f35b5080fd5b503461008b578160031936011261008b57905490516001600160a01b039091168152602090f35b503461008b578160031936011261008b5760ff6020925460a01c1690519015158152f35b508060031936011261008b57600435916001600160a01b0383168303610113575061010a60209260243590610116565b90519015158152f35b80fd5b5f80546001600160a01b039291908381163381148015929061022f575b821561020c575b50506101f8578080808087865af13d156101f35767ffffffffffffffff3d8181116101df5760405191601f8201601f19908116603f01168301908111838210176101cb5760405281528260203d92013e5b156101c457507f9735b0cb909f3d21d5c16bbcccd272d85fa11446f6d679f6ecb170d2dabfecfc916020916040519485521692a2600190565b9250505090565b634e487b7160e01b85526041600452602485fd5b634e487b7160e01b84526041600452602484fd5b61018b565b634e487b7160e01b81526001600452602490fd5b60a01c60ff16915081610222575b505f8061013a565b905083831614155f61021a565b341515925061013356fea26469706673582212208d5dc1e22a70f460e6fcad2fd7bfb5807ce90b2005fcd5f64a2adfa840a774c564736f6c63430008150033",
  "immutableReferences": {},
  "source": "/*\nThis file is part of the DAO.\n\nThe DAO is free software: you can redistribute it and/or modify\nit under the terms of the GNU lesser General Public License as published by\nthe Free Software Foundation, either version 3 of the License, or\n(at your option) any later version.\n\nThe DAO is distributed in the hope that it will be useful,\nbut WITHOUT ANY WARRANTY; without even the implied warranty of\nMERCHANTABILITY or FITNESS FOR A PARTICULAR PURPOSE.  See the\nGNU lesser General Public License for more details.\n\nYou should have received a copy of the GNU lesser General Public License\nalong with the DAO.  If not, see <http://www.gnu.org/licenses/>.\n*/\n\n\n/*\nBasic account, used by the DAO contract to separately manage both the rewards \nand the extraBalance accounts. \n*/\n\n// SPDX-License-Identifier: UNLICENSED\n\npragma solidity ^0.8.0;\n\nabstract contract ManagedAccountInterface {\n    // The only address with permission to withdraw from this account\n    address public owner;\n    // If true, only the owner of the account can receive ether from it\n    bool public payOwnerOnly;\n    // The sum of ether (in wei) which has been sent to this contract\n    uint public accumulatedInput;\n\n    /// @notice Sends `_amount` of wei to _recipient\n    /// @param _amount The amount of wei to send to `_recipient`\n    /// @param _recipient The address to receive `_amount` of wei\n    /// @return True if the send completed\n    function payOut(address _recipient, uint _amount) public virtual payable returns (bool);\n\n    event PayOut(address indexed _recipient, uint _amount);\n}\n\n\ncontract ManagedAccount is ManagedAccountInterface{\n\n    // The constructor sets the owner of the account\n    constructor(address _owner, bool _payOwnerOnly) {\n        owner = _owner;\n        payOwnerOnly = _payOwnerOnly;\n    }\n\n    // When the contract receives a transaction without data this is called. \n    // It counts the amount of ether it receives and stores it in \n    // accumulatedInput.\n    fallback() external payable {\n        accumulatedInput += msg.value;\n    }\n\n    function payOut(address _recipient, uint _amount) public override payable returns (bool) {\n        assert(!(msg.sender != owner || msg.value > 0 || (payOwnerOnly && _recipient != owner)));\n        (bool success, ) = (_recipient.call{value: _amount}(\"\"));\n        if (success) {\n            emit PayOut(_recipient, _amount);\n            return true;\n        } else {\n            return false;\n        }\n    }\n}",
  "sourcePath": "/Users/MacHD/Desktop/TheDAO/DAO-Transpile/DAO-Transpilation2/contracts/ManagedAccount.sol",
  "compiler": {
    "name": "solc",
    "version": "0.8.21+commit.d9974bed.Emscripten.clang"
  },
  "schemaVersion": "3.4.16",
  "updatedAt": "2024-03-07T21:03:06.800Z",
  "devdoc": {
    "kind": "dev",
    "methods": {
      "payOut(address,uint256)": {
        "params": {
          "_amount": "The amount of wei to send to `_recipient`",
          "_recipient": "The address to receive `_amount` of wei"
        },
        "returns": {
          "_0": "True if the send completed"
        }
      }
    },
    "version": 1
  },
  "userdoc": {
    "kind": "user",
    "methods": {
      "payOut(address,uint256)": {
        "notice": "Sends `_amount` of wei to _recipient"
      }
    },
    "version": 1
  }
}