{
  "contractName": "Offer",
  "abi": [
    {
      "inputs": [
        {
          "internalType": "address",
          "name": "_contractor",
          "type": "address"
        },
        {
          "internalType": "address payable",
          "name": "_client",
          "type": "address"
        },
        {
          "internalType": "bytes32",
          "name": "_hashOfTheProposalDocument",
          "type": "bytes32"
        },
        {
          "internalType": "uint256",
          "name": "_totalCost",
          "type": "uint256"
        },
        {
          "internalType": "uint256",
          "name": "_initialWithdrawal",
          "type": "uint256"
        },
        {
          "internalType": "uint128",
          "name": "_minDailyWithdrawalLimit",
          "type": "uint128"
        },
        {
          "internalType": "uint256",
          "name": "_payoutFreezePeriod",
          "type": "uint256"
        }
      ],
      "stateMutability": "nonpayable",
      "type": "constructor"
    },
    {
      "stateMutability": "nonpayable",
      "type": "fallback"
    },
    {
      "inputs": [],
      "name": "getTotalCost",
      "outputs": [
        {
          "internalType": "uint256",
          "name": "",
          "type": "uint256"
        }
      ],
      "stateMutability": "view",
      "type": "function"
    },
    {
      "inputs": [],
      "name": "getInitialWithdrawal",
      "outputs": [
        {
          "internalType": "uint256",
          "name": "",
          "type": "uint256"
        }
      ],
      "stateMutability": "view",
      "type": "function"
    },
    {
      "inputs": [],
      "name": "getMinDailyWithdrawalLimit",
      "outputs": [
        {
          "internalType": "uint128",
          "name": "",
          "type": "uint128"
        }
      ],
      "stateMutability": "view",
      "type": "function"
    },
    {
      "inputs": [],
      "name": "getDailyWithdrawalLimit",
      "outputs": [
        {
          "internalType": "uint128",
          "name": "",
          "type": "uint128"
        }
      ],
      "stateMutability": "view",
      "type": "function"
    },
    {
      "inputs": [],
      "name": "getPayoutFreezePeriod",
      "outputs": [
        {
          "internalType": "uint256",
          "name": "",
          "type": "uint256"
        }
      ],
      "stateMutability": "view",
      "type": "function"
    },
    {
      "inputs": [],
      "name": "getContractor",
      "outputs": [
        {
          "internalType": "address",
          "name": "",
          "type": "address"
        }
      ],
      "stateMutability": "view",
      "type": "function"
    },
    {
      "inputs": [],
      "name": "getHashOfTheProposalDocument",
      "outputs": [
        {
          "internalType": "bytes32",
          "name": "",
          "type": "bytes32"
        }
      ],
      "stateMutability": "view",
      "type": "function"
    },
    {
      "inputs": [],
      "name": "getLastWithdrawal",
      "outputs": [
        {
          "internalType": "uint256",
          "name": "",
          "type": "uint256"
        }
      ],
      "stateMutability": "view",
      "type": "function"
    },
    {
      "inputs": [],
      "name": "getDateOfSignature",
      "outputs": [
        {
          "internalType": "uint256",
          "name": "",
          "type": "uint256"
        }
      ],
      "stateMutability": "view",
      "type": "function"
    },
    {
      "inputs": [],
      "name": "getClient",
      "outputs": [
        {
          "internalType": "contract DAO",
          "name": "",
          "type": "address"
        }
      ],
      "stateMutability": "view",
      "type": "function"
    },
    {
      "inputs": [],
      "name": "getOriginalClient",
      "outputs": [
        {
          "internalType": "contract DAO",
          "name": "",
          "type": "address"
        }
      ],
      "stateMutability": "view",
      "type": "function"
    },
    {
      "inputs": [],
      "name": "getIsContractValid",
      "outputs": [
        {
          "internalType": "bool",
          "name": "",
          "type": "bool"
        }
      ],
      "stateMutability": "view",
      "type": "function"
    },
    {
      "inputs": [],
      "name": "getInitialWithdrawalDone",
      "outputs": [
        {
          "internalType": "bool",
          "name": "",
          "type": "bool"
        }
      ],
      "stateMutability": "view",
      "type": "function"
    },
    {
      "inputs": [],
      "name": "getVotingDeadline",
      "outputs": [
        {
          "internalType": "uint256",
          "name": "",
          "type": "uint256"
        }
      ],
      "stateMutability": "view",
      "type": "function"
    },
    {
      "inputs": [],
      "name": "sign",
      "outputs": [],
      "stateMutability": "payable",
      "type": "function"
    },
    {
      "inputs": [
        {
          "internalType": "uint256",
          "name": "_votingDeadline",
          "type": "uint256"
        }
      ],
      "name": "setVotingDeadline",
      "outputs": [],
      "stateMutability": "nonpayable",
      "type": "function"
    },
    {
      "inputs": [
        {
          "internalType": "uint128",
          "name": "_dailyWithdrawalLimit",
          "type": "uint128"
        }
      ],
      "name": "setDailyWithdrawLimit",
      "outputs": [],
      "stateMutability": "nonpayable",
      "type": "function"
    },
    {
      "inputs": [],
      "name": "terminate",
      "outputs": [],
      "stateMutability": "nonpayable",
      "type": "function"
    },
    {
      "inputs": [],
      "name": "withdraw",
      "outputs": [],
      "stateMutability": "nonpayable",
      "type": "function"
    },
    {
      "inputs": [],
      "name": "performInitialWithdrawal",
      "outputs": [],
      "stateMutability": "nonpayable",
      "type": "function"
    },
    {
      "inputs": [
        {
          "internalType": "contract DAO",
          "name": "_newClient",
          "type": "address"
        }
      ],
      "name": "updateClientAddress",
      "outputs": [],
      "stateMutability": "nonpayable",
      "type": "function"
    }
  ],
  "bytecode": "0x6080346100e557601f61092638819003918201601f19168301916001600160401b038311848410176100e95780849260e0946040528339810103126100e55780516001600160a01b0380821692918390036100e55760208201519081168091036100e5576040820151606083015160808401519160a08501519360018060801b038516958686036100e55760c00151600480546001600160a01b03199081169099179055600a8054891683179055600980549098169091179096556005555f5560015560801b6001600160801b0319161760025560035560405161082890816100fe8239f35b5f80fd5b634e487b7160e01b5f52604160045260245ffdfe6080604081815260049182361015610030575b50503461002c57600190634e487b7160e01b5f525260245ffd5b5f80fd5b5f91823560e01c9182630c0662a814610764575081630c08bf881461065757816314918f5e146105c75781631bcad37a146105aa5781631f7b86221461058b578163262c0b721461056c5781632ca15122146104625781633ccfd60b1461039a57816342d167481461037257816343bf718e1461035357816359dc735c1461032a57816360213b881461030b5781636a7fc8b71461029a57816372b75585146102715781637416cd3214610229578163a00ce37714610202578163b29ae23f146101e3578163b6cb405b146101b6578163d44f2d3d1461018f578163d6b4ec121461016d575063edfbf7b6146101265780610012565b90346101695760203660031901126101695780546001600160a01b0316331480159061015e575b61015790156107a1565b3560085580f35b50600854151561014d565b5080fd5b90503461016957816003193601126101695760209060025460801c9051908152f35b90503461016957816003193601126101695760209060ff600a5460a81c1690519015158152f35b905082346101df57826003193601126101df575490516001600160a01b03909116815260209150f35b8280fd5b9050346101695781600319360112610169576020906007549051908152f35b90503461016957816003193601126101695760209060ff600a5460a01c1690519015158152f35b82843461016957602036600319011261016957356001600160a01b03818116918290036101df5761026060095491821633146107a1565b6001600160a01b0319161760095580f35b905034610169578160031936011261016957600a5490516001600160a01b039091168152602090f35b82843461016957602036600319011261016957356001600160801b039081811691828203610307576102d760018060a01b036009541633146107a1565b60025416809210156102e7578280f35b60801b6fffffffffffffffffffffffffffffffff19161760025581808280f35b8380fd5b9050346101695781600319360112610169576020906001549051908152f35b90503461016957816003193601126101695760095490516001600160a01b039091168152602090f35b9050346101695781600319360112610169576020906005549051908152f35b9050346101695781600319360112610169576020906001600160801b03600254169051908152f35b82843461016957816003193601126101695780546001600160a01b0316338114801590610446575b6103cc90156107a1565b60065491824203904282116104335760025460801c808302928304148442141715610433575083808093620151808294049047821161042b575b42600655828215610422575bf11561041c575080f35b60065580f35b506108fc610412565b479150610406565b634e487b7160e01b855260119052602484fd5b506103cc61045960085460035490610780565b421090506103c2565b82848160031936011261016957600a546001600160a01b0391839183163314801590610561575b8015610556575b801561054c575b801561051c575b6104a890156107a1565b6008546104b86003548092610780565b600655156104dc575b5042600755600a805460ff60a01b1916600160a01b17905580f35b81806104f8948193541660015490828215610513575bf16107a1565b600a805460ff60a81b1916600160a81b1790558181816104c1565b506108fc6104f2565b509050600854620a8c00810180911161053957839190421061049e565b634e487b7160e01b845260118252602484fd5b5060085415610497565b506007541515610490565b508154341415610489565b9050346101695781600319360112610169576020906003549051908152f35b9050346101695781600319360112610169576020906008549051908152f35b905034610169578160031936011261016957602091549051908152f35b8284346101695781806003193601126106545780808061062b9460018060a01b0390541680331480159061063d575b801561062e575b61060790156107a1565b600a805460ff60a81b1916600160a81b1790556001549082821561051357f16107a1565b80f35b50600a5460a81c60ff166105fd565b5061064d60085460035490610780565b42106105f6565b80fd5b9050346101695781600319360112610169578260018060a01b03610680816009541633146107a1565b602081600a54168451938480926320afd91960e21b82525afa91821561075757908492918392610719575b5082809281924791165af1903d15610710573d67ffffffffffffffff81116106fd576106e692939450602090601f80199101160190516107bc565b6106ed5780f35b600a805460ff60a01b1916905580f35b634e487b7160e01b845260418552602484fd5b509091506106e6565b915091506020813d821161074f575b81610735602093836107bc565b8101031261030757518181168103610307578391826106ab565b3d9150610728565b50505051903d90823e3d90fd5b8390346101695781600319360112610169576020906006548152f35b9190820180921161078d57565b634e487b7160e01b5f52601160045260245ffd5b156107a857565b634e487b7160e01b5f52600160045260245ffd5b90601f8019910116810190811067ffffffffffffffff8211176107de57604052565b634e487b7160e01b5f52604160045260245ffdfea26469706673582212209d05d574a917b9e4794b0260124c786f884d5ed9151ba00eb9fc637245a1cd4664736f6c63430008150033",
  "immutableReferences": {},
  "source": "/*\nThis file is part of the DAO.\n\nThe DAO is free software: you can redistribute it and/or modify\nit under the terms of the GNU lesser General Public License as published by\nthe Free Software Foundation, either version 3 of the License, or\n(at your option) any later version.\n\nThe DAO is distributed in the hope that it will be useful,\nbut WITHOUT ANY WARRANTY; without even the implied warranty of\nMERCHANTABILITY or FITNESS FOR A PARTICULAR PURPOSE.  See the\nGNU lesser General Public License for more details.\n\nYou should have received a copy of the GNU lesser General Public License\nalong with the DAO.  If not, see <http://www.gnu.org/licenses/>.\n*/\n\n\n/*\n  An Offer from a Contractor to the DAO. No logic about the DAO reward is\n  included in this contract.\n\n  Feel free to use as a base contract for your own proposal.\n\n  Actors:\n  - Offerer:    the entity that creates the Offer. Usually it is the initial\n                Contractor.\n  - Contractor: the entity that has rights to withdraw ether to perform\n                its project.\n  - Client:     the DAO that gives ether to the Contractor. It accepts\n                the Offer, can adjust daily withdraw limit or even fire the\n                Contractor.\n*/\n\n// SPDX-License-Identifier: UNLICENSED\n\nimport \"./DAO.sol\";\n\npragma solidity ^0.8.0;\n\ncontract Offer {\n\n    // Period of time after the passing of a proposal during which the offer\n    // contract can not be signed in order to provide enough time to anyone\n    // who may want to split off the DAO to do so.\n    uint constant splitGracePeriod = 8 days;\n\n    // The total cost of the Offer for the Client. Exactly this amount is\n    // transfered from the Client to the Offer contract when the Offer is\n    // accepted by the Client. Set once by the Offerer.\n    uint totalCost;\n\n    // Initial withdrawal to the Contractor. It is done the moment the\n    // Offer is accepted. Set once by the Offerer.\n    uint initialWithdrawal;\n\n    // The minimum daily withdrawal limit that the Contractor accepts.\n    // Set once by the Offerer.\n    uint128 minDailyWithdrawalLimit;\n\n    // The amount of wei the Contractor has right to withdraw daily above the\n    // initial withdrawal. The Contractor does not have to perform the\n    // withdrawals every day as this amount accumulates.\n    uint128 dailyWithdrawalLimit;\n\n    // Period of time after which money can be withdrawn from this contract\n    uint payoutFreezePeriod;\n\n    // The address of the Contractor.\n    address contractor;\n\n    // The hash of the Proposal/Offer document.\n    bytes32 hashOfTheProposalDocument;\n\n    // The time of the last withdrawal to the Contractor.\n    uint lastWithdrawal;\n\n    // The timestamp when the offer contract was accepted.\n    uint dateOfSignature;\n\n    // Voting deadline of the proposal\n    uint votingDeadline;\n\n    // The address of the current Client.\n    DAO client;\n    // The address of the Client who accepted the Offer.\n    DAO originalClient;\n\n    // Flag denoting whether the contract is still considered valid\n    bool isContractValid;\n\n    // Flag denoting if the initial withdrawal sum was drawn from the contract\n    bool initialWithdrawalDone;\n\n\n    modifier onlyClient {\n        assert (!(msg.sender != address(client)));\n        _;\n    }\n\n    // Prevents methods from perfoming any value transfer\n    modifier noEther() {assert (!(msg.value > 0)); _;}\n\n    constructor(\n        address _contractor,\n        address payable _client,\n        bytes32 _hashOfTheProposalDocument,\n        uint _totalCost,\n        uint _initialWithdrawal,\n        uint128 _minDailyWithdrawalLimit,\n        uint _payoutFreezePeriod\n    ) {\n        contractor = _contractor;\n        originalClient = DAO(_client);\n        client = DAO(_client);\n        hashOfTheProposalDocument = _hashOfTheProposalDocument;\n        totalCost = _totalCost;\n        initialWithdrawal = _initialWithdrawal;\n        minDailyWithdrawalLimit = _minDailyWithdrawalLimit;\n        dailyWithdrawalLimit = _minDailyWithdrawalLimit;\n        payoutFreezePeriod = _payoutFreezePeriod;\n    }\n\n    // non-value-transfer getters\n    function getTotalCost() public view returns (uint) {\n        return totalCost;\n    }\n\n    function getInitialWithdrawal() public view returns (uint) {\n        return initialWithdrawal;\n    }\n\n    function getMinDailyWithdrawalLimit() public view returns (uint128) {\n        return minDailyWithdrawalLimit;\n    }\n\n    function getDailyWithdrawalLimit() public view returns (uint128) {\n        return dailyWithdrawalLimit;\n    }\n\n    function getPayoutFreezePeriod() public view returns (uint) {\n        return payoutFreezePeriod;\n    }\n\n    function getContractor() public view returns (address) {\n        return contractor;\n    }\n\n    function getHashOfTheProposalDocument() public view returns (bytes32) {\n        return hashOfTheProposalDocument;\n    }\n\n    function getLastWithdrawal() public view returns (uint) {\n        return lastWithdrawal;\n    }\n\n    function getDateOfSignature() public view returns (uint) {\n        return dateOfSignature;\n    }\n\n    function getClient() public view returns (DAO) {\n        return client;\n    }\n\n    function getOriginalClient() public view returns (DAO) {\n        return originalClient;\n    }\n\n    function getIsContractValid() public view returns (bool) {\n        return isContractValid;\n    }\n\n    function getInitialWithdrawalDone() public view returns (bool) {\n        return initialWithdrawalDone;\n    }\n\n    function getVotingDeadline() public view returns (uint) {\n        return votingDeadline;\n    }\n\n    function sign() public payable {\n        assert (! (msg.sender != address(originalClient) // no good samaritans give us ether\n            || msg.value != totalCost    // no under/over payment\n            || dateOfSignature != 0      // don't accept twice\n            || votingDeadline == 0       // votingDeadline needs to be set\n            || block.timestamp < votingDeadline + splitGracePeriod)); // give people time to split\n        \n\n        lastWithdrawal = votingDeadline + payoutFreezePeriod;\n        if (payoutFreezePeriod == 0) {\n            bool sent = payable(contractor).send(initialWithdrawal);\n            assert(sent);\n            initialWithdrawalDone = true;\n        }\n        dateOfSignature = block.timestamp;\n        isContractValid = true;\n    }\n\n    // Once a proposal is submitted, the Contractor should call this\n    // function to set the voting deadline of the proposal\n    function setVotingDeadline(uint _votingDeadline) public {\n        assert (!(msg.sender != contractor || votingDeadline != 0));\n\n        votingDeadline = _votingDeadline;\n    }\n\n    function setDailyWithdrawLimit(uint128 _dailyWithdrawalLimit) onlyClient public {\n        if (_dailyWithdrawalLimit >= minDailyWithdrawalLimit)\n            dailyWithdrawalLimit = _dailyWithdrawalLimit;\n    }\n\n    // Terminate the ongoing Offer.\n    //\n    // The Client can terminate the ongoing Offer using this method. Using it\n    // on an invalid (balance 0) Offer has no effect. The Contractor loses\n    // right to any ether left in the Offer.\n    function terminate() onlyClient public {\n        (bool success, ) = address(originalClient.DAOrewardAccount()).call{value : address(this).balance}(\"\");\n        if(success){\n            isContractValid = false;\n        }       \n    }\n\n    // Withdraw to the Contractor.\n    //\n    // Withdraw the amount of ether the Contractor has right to according to\n    // the current withdraw limit.\n    // Executing this function before the Offer is accepted by the Client\n    // makes no sense as this contract has no ether.\n    function withdraw() public {\n        assert (!(msg.sender != contractor || block.timestamp < votingDeadline + payoutFreezePeriod));\n        uint timeSincelastWithdrawal = block.timestamp - lastWithdrawal;\n        // Calculate the amount using 1 second precision.\n        uint amount = (timeSincelastWithdrawal * dailyWithdrawalLimit) / (1 days);\n        if (amount > address(this).balance) {\n            amount = address(this).balance;\n        }\n        uint lastWithdrawalReset = lastWithdrawal;\n        lastWithdrawal = block.timestamp;\n        if (!(payable(contractor).send(amount)))\n            lastWithdrawal = lastWithdrawalReset;\n    }\n\n    // Perform the withdrawal of the initial sum of money to the contractor\n    // if that did not already happen during the signing\n    function performInitialWithdrawal() public {\n        assert (!(msg.sender != contractor\n            || block.timestamp < votingDeadline + payoutFreezePeriod\n            || initialWithdrawalDone ));\n\n        initialWithdrawalDone = true;\n        assert (payable(contractor).send(initialWithdrawal));\n    }\n\n    // Change the client DAO by giving the new DAO's address\n    // warning: The new DAO must come either from a split of the original\n    // DAO or an update via `newContract()` so that it can claim rewards\n    function updateClientAddress(DAO _newClient) onlyClient public{\n        client = _newClient;\n    }\n\n    fallback () external{\n        assert(false); // This is a business contract, no donations.\n    }\n}",
  "sourcePath": "/Users/MacHD/Desktop/TheDAO/DAO-Transpile/DAO-Transpilation2/contracts/Offer.sol",
  "compiler": {
    "name": "solc",
    "version": "0.8.21+commit.d9974bed.Emscripten.clang"
  },
  "schemaVersion": "3.4.16",
  "updatedAt": "2024-03-08T16:09:51.187Z",
  "devdoc": {
    "kind": "dev",
    "methods": {},
    "version": 1
  },
  "userdoc": {
    "kind": "user",
    "methods": {},
    "version": 1
  }
}