{
  "contractName": "PFOffer",
  "abi": [
    {
      "inputs": [
        {
          "internalType": "address",
          "name": "_contractor",
          "type": "address"
        },
        {
          "internalType": "address payable",
          "name": "_client",
          "type": "address"
        },
        {
          "internalType": "bytes32",
          "name": "_hashOfTheProposalDocument",
          "type": "bytes32"
        },
        {
          "internalType": "uint256",
          "name": "_totalCost",
          "type": "uint256"
        },
        {
          "internalType": "uint256",
          "name": "_initialWithdrawal",
          "type": "uint256"
        },
        {
          "internalType": "uint128",
          "name": "_minDailyWithdrawalLimit",
          "type": "uint128"
        }
      ],
      "stateMutability": "nonpayable",
      "type": "constructor"
    },
    {
      "stateMutability": "nonpayable",
      "type": "fallback"
    },
    {
      "inputs": [],
      "name": "getTotalCost",
      "outputs": [
        {
          "internalType": "uint256",
          "name": "",
          "type": "uint256"
        }
      ],
      "stateMutability": "view",
      "type": "function"
    },
    {
      "inputs": [],
      "name": "getInitialWithdrawal",
      "outputs": [
        {
          "internalType": "uint256",
          "name": "",
          "type": "uint256"
        }
      ],
      "stateMutability": "view",
      "type": "function"
    },
    {
      "inputs": [],
      "name": "getMinDailyWithdrawalLimit",
      "outputs": [
        {
          "internalType": "uint128",
          "name": "",
          "type": "uint128"
        }
      ],
      "stateMutability": "view",
      "type": "function"
    },
    {
      "inputs": [],
      "name": "getDailyWithdrawalLimit",
      "outputs": [
        {
          "internalType": "uint128",
          "name": "",
          "type": "uint128"
        }
      ],
      "stateMutability": "view",
      "type": "function"
    },
    {
      "inputs": [],
      "name": "getContractor",
      "outputs": [
        {
          "internalType": "address",
          "name": "",
          "type": "address"
        }
      ],
      "stateMutability": "view",
      "type": "function"
    },
    {
      "inputs": [],
      "name": "getHashOfTheProposalDocument",
      "outputs": [
        {
          "internalType": "bytes32",
          "name": "",
          "type": "bytes32"
        }
      ],
      "stateMutability": "view",
      "type": "function"
    },
    {
      "inputs": [],
      "name": "getLastWithdrawal",
      "outputs": [
        {
          "internalType": "uint256",
          "name": "",
          "type": "uint256"
        }
      ],
      "stateMutability": "view",
      "type": "function"
    },
    {
      "inputs": [],
      "name": "getDateOfSignature",
      "outputs": [
        {
          "internalType": "uint256",
          "name": "",
          "type": "uint256"
        }
      ],
      "stateMutability": "view",
      "type": "function"
    },
    {
      "inputs": [],
      "name": "getClient",
      "outputs": [
        {
          "internalType": "contract DAO",
          "name": "",
          "type": "address"
        }
      ],
      "stateMutability": "view",
      "type": "function"
    },
    {
      "inputs": [],
      "name": "getOriginalClient",
      "outputs": [
        {
          "internalType": "contract DAO",
          "name": "",
          "type": "address"
        }
      ],
      "stateMutability": "view",
      "type": "function"
    },
    {
      "inputs": [],
      "name": "getIsContractValid",
      "outputs": [
        {
          "internalType": "bool",
          "name": "",
          "type": "bool"
        }
      ],
      "stateMutability": "view",
      "type": "function"
    },
    {
      "inputs": [],
      "name": "getInitialWithdrawalDone",
      "outputs": [
        {
          "internalType": "bool",
          "name": "",
          "type": "bool"
        }
      ],
      "stateMutability": "view",
      "type": "function"
    },
    {
      "inputs": [],
      "name": "getWasApprovedBeforeDeadline",
      "outputs": [
        {
          "internalType": "bool",
          "name": "",
          "type": "bool"
        }
      ],
      "stateMutability": "view",
      "type": "function"
    },
    {
      "inputs": [],
      "name": "getProposalID",
      "outputs": [
        {
          "internalType": "uint256",
          "name": "",
          "type": "uint256"
        }
      ],
      "stateMutability": "view",
      "type": "function"
    },
    {
      "inputs": [],
      "name": "sign",
      "outputs": [],
      "stateMutability": "payable",
      "type": "function"
    },
    {
      "inputs": [
        {
          "internalType": "uint128",
          "name": "_dailyWithdrawalLimit",
          "type": "uint128"
        }
      ],
      "name": "setDailyWithdrawLimit",
      "outputs": [],
      "stateMutability": "nonpayable",
      "type": "function"
    },
    {
      "inputs": [],
      "name": "terminate",
      "outputs": [],
      "stateMutability": "nonpayable",
      "type": "function"
    },
    {
      "inputs": [],
      "name": "withdraw",
      "outputs": [],
      "stateMutability": "nonpayable",
      "type": "function"
    },
    {
      "inputs": [],
      "name": "performInitialWithdrawal",
      "outputs": [],
      "stateMutability": "nonpayable",
      "type": "function"
    },
    {
      "inputs": [
        {
          "internalType": "uint256",
          "name": "_proposalID",
          "type": "uint256"
        }
      ],
      "name": "watchProposal",
      "outputs": [],
      "stateMutability": "nonpayable",
      "type": "function"
    },
    {
      "inputs": [],
      "name": "checkVoteStatus",
      "outputs": [],
      "stateMutability": "nonpayable",
      "type": "function"
    },
    {
      "inputs": [
        {
          "internalType": "contract DAO",
          "name": "_newClient",
          "type": "address"
        }
      ],
      "name": "updateClientAddress",
      "outputs": [],
      "stateMutability": "nonpayable",
      "type": "function"
    }
  ],
  "bytecode": "0x6080346100f857601f610cd638819003918201601f19168301916001600160401b038311848410176100fc5780849260c0946040528339810103126100f85780516001600160a01b038082169290918390036100f85760208101519182168092036100f857604081015160608201519060a060808401519301519360018060801b038516958686036100f85760018060a01b0319908160045416176004558181600954161760095560085416176008556005555f5560015560025490610100600160881b039060081b1690610100600160881b0319161760025560018060801b03196003541617600355604051610bc590816101118239f35b5f80fd5b634e487b7160e01b5f52604160045260245ffdfe608060409080825260049182361015610031575b50503461002d57600190634e487b7160e01b5f525260245ffd5b5f80fd5b5f91823560e01c9081630c0662a814610a09575080630c08bf881461092857806314918f5e146108785780631bcad37a1461085c57806320768ee81461083e5780632ca1512214610725578063350d141e146107025780633ccfd60b1461062557806342d16748146105fb57806343bf718e146105dd57806359dc735c146105b557806360213b88146105975780636a7fc8b71461053657806372b755851461050e5780637416cd32146104c6578063a00ce377146104a0578063b29ae23f14610482578063b6cb405b1461045a578063d44f2d3d14610437578063d6b4ec121461040c578063e45ebe931461020e5763ffb7bfba0361001357823461020a57602036600319011261020a5780359160018060a01b03610155818454163314610b74565b848460248360085416958551968793849263013cf08b60e01b84528301525afa91821561020157508490859386936101cb575b5016301491826101c1575b50816101b9575b50806101af575b6101a9575080f35b600a5580f35b50600a54156101a1565b90508361019a565b4210915084610193565b915092506101eb91503d8086833e6101e38183610a25565b810190610a84565b5050505050505094939150915090929186610188565b513d86823e3d90fd5b8280fd5b5082903461020a578260031936011261020a57600854600a54825163013cf08b60e01b81528085019190915292906001600160a01b03168484602481845afa928315610201578592869587956103db575b506064860293868504606414871517156103c85782516318160ddd60e01b81529360209182868581855afa9586156103be578a9661038b575b508515610378576202a2ff198101908111610365579180916102bd8594421115610b74565b85516333a7683360e11b815293849182905afa93841561035c57508893610328575b50508115610315575060640491041015918261030b575b505060ff8019600b54169115151617600b5580f35b11905082806102f6565b634e487b7160e01b875260129052602486fd5b9080929350813d8311610355575b6103408183610a25565b8101031261035157519087806102df565b8680fd5b503d610336565b513d8a823e3d90fd5b634e487b7160e01b8a526011845260248afd5b634e487b7160e01b8a526012845260248afd5b9095508281813d83116103b7575b6103a38183610a25565b810103126103b35751948a610298565b8980fd5b503d610399565b85513d8c823e3d90fd5b634e487b7160e01b885260118252602488fd5b91935093506103f59194503d8087833e6101e38183610a25565b509c9950999750505050505090509294938761025f565b50346104335781600319360112610433576020906001600160801b03600354169051908152f35b5080fd5b503461043357816003193601126104335760209060ff6002541690519015158152f35b50823461020a578260031936011261020a575490516001600160a01b03909116815260209150f35b50346104335781600319360112610433576020906007549051908152f35b503461043357816003193601126104335760209060ff60095460a01c1690519015158152f35b82843461043357602036600319011261043357356001600160a01b038181169182900361020a576104fd6008549182163314610b74565b6001600160a01b0319161760085580f35b503461043357816003193601126104335760095490516001600160a01b039091168152602090f35b82843461043357602036600319011261043357356001600160801b0380821680920361020a5761057160018060a01b03600854163314610b74565b60025460081c16811015610583575080f35b6001600160801b0319600354161760035580f35b50346104335781600319360112610433576020906001549051908152f35b503461043357816003193601126104335760085490516001600160a01b039091168152602090f35b50346104335781600319360112610433576020906005549051908152f35b50346104335781600319360112610433576020906001600160801b0360025460081c169051908152f35b82843461043357816003193601126104335780546001600160a01b03163381148015906106d7575b6106579015610b74565b60065491824203904282116106c4576001600160801b03600354168083029283041484421417156106c457508380809362015180829404904782116106bc575b426006558282156106b3575bf1156106ad575080f35b60065580f35b506108fc6106a3565b479150610697565b634e487b7160e01b855260119052602484fd5b506007546217bb0081018091116106ef57421061064d565b634e487b7160e01b845260118352602484fd5b503461043357816003193601126104335760209060ff600b541690519015158152f35b5082908260031936011261020a5760018060a01b0390816008541684600a54602484518094819363013cf08b60e01b8352898301525afa91821561020157508491610818575b50600954918216331480159061080d575b8015610802575b80156107f5575b80156107dc575b61079c915015610b74565b42600781905560ff60a01b19909116600160a01b176009556217bb008101919082106107c9575060065580f35b634e487b7160e01b835260119052602482fd5b50620a8c0081018091116106ef5761079c904210610791565b5060ff600b54161561078a565b506007541515610783565b50835434141561077c565b61082c91503d8086833e6101e38183610a25565b5050505050505050925050508461076b565b5034610433578160031936011261043357602090600a549051908152f35b5034610433578160031936011261043357602091549051908152f35b82843461043357816003193601126104335780546001600160a01b0316908290338314801591906108f6575b5081806108de9483829490156108ea575b6108bf9015610b74565b600160ff196002541617600255600154908282156108e1575bf1610b74565b80f35b506108fc6108d8565b5060025460ff166108b5565b915050600754906217bb008201809211610915575082904210816108a4565b634e487b7160e01b845260119052602483fd5b508183346104335781600319360112610433576008546001600160a01b03906109549082163314610b74565b602081600954168551938480926320afd91960e21b82525afa9081156109ff57839283926109bf575b50829182914791165af1903d156109b9576109a29061099b3d610a5b565b9051610a25565b6109a95780f35b6009805460ff60a01b1916905580f35b506109a2565b915091506020813d82116109f7575b816109db60209383610a25565b8101031261020a575190808216820361020a578291908261097d565b3d91506109ce565b84513d85823e3d90fd5b8390346104335781600319360112610433576020906006548152f35b90601f8019910116810190811067ffffffffffffffff821117610a4757604052565b634e487b7160e01b5f52604160045260245ffd5b67ffffffffffffffff8111610a4757601f01601f191660200190565b5190811515820361002d57565b916101808383031261002d5782516001600160a01b0390818116810361002d57936020938482015194604083015167ffffffffffffffff811161002d57830182601f8201121561002d57805190610ada82610a5b565b93610ae86040519586610a25565b82855283838301011161002d575f5b828110610b61575050905f918301015292606082015192610b1a60808401610a77565b92610b2760a08201610a77565b9260c08201519260e083015192610b416101008201610a77565b9261012082015192610160610140840151930151908116810361002d5790565b8181018401518582018501528301610af7565b15610b7b57565b634e487b7160e01b5f52600160045260245ffdfea264697066735822122023178b5cf971571d9bc8efe3bb68bc3c6b5476df6474e6599c68186cf45f663864736f6c63430008150033",
  "immutableReferences": {},
  "source": "/*\nThis file is part of the DAO.\n\nThe DAO is free software: you can redistribute it and/or modify\nit under the terms of the GNU lesser General Public License as published by\nthe Free Software Foundation, either version 3 of the License, or\n(at your option) any later version.\n\nThe DAO is distributed in the hope that it will be useful,\nbut WITHOUT ANY WARRANTY; without even the implied warranty of\nMERCHANTABILITY or FITNESS FOR A PARTICULAR PURPOSE.  See the\nGNU lesser General Public License for more details.\n\nYou should have received a copy of the GNU lesser General Public License\nalong with the DAO.  If not, see <http://www.gnu.org/licenses/>.\n*/\n\n\n/*\n  An Offer from a Contractor to the DAO without any reward going back to\n  the DAO.\n\n  Feel free to use as a template for your own proposal.\n\n  Actors:\n  - Offerer:    the entity that creates the Offer. Usually it is the initial\n                Contractor.\n  - Contractor: the entity that has rights to withdraw ether to perform\n                its project.\n  - Client:     the DAO that gives ether to the Contractor. It signs off\n                the Offer, can adjust daily withdraw limit or even fire the\n                Contractor.\n\n  -- Important Note For Compilation --\n  This contract also reads from the DAO's proposal struct array. There used to\n  be a solidity bug (https://github.com/ethereum/solidity/issues/598#issuecomment-224015639)\n  that is now fixed which would result in wrong values when reading from the\n  proposals array.\n\n  Use a solc that includes commit:  0a0fc04641787ce057a9fcc9e366ea898b1fd8d6\n  to be sure that the contract is compiled with the fix and that the proposals\n  member attributes are read correctly. This comment will be updated as soon\n  as the fix makes it into a solc release.\n*/\n\nimport \"./DAO.sol\";\n\npragma solidity ^0.8.21;\n\ncontract PFOffer {\n\n    // Period of time after which money can be withdrawn from this contract\n    uint constant payoutFreezePeriod = 18 days;\n    // Time before the end of the voting period after which\n    // checkVoteStatus() can no longer be called\n    uint constant voteStatusDeadline = 48 hours;\n    // Time before the proposal can get executed. This allows token holders\n    // to split after they have voted.\n    uint constant splitGracePeriod = 8 days;\n\n    // The total cost of the Offer for the Client. Exactly this amount is\n    // transfered from the Client to the Offer contract when the Offer is\n    // accepted by the Client. Set once by the Offerer.\n    uint totalCost;\n\n    // Initial withdrawal to the Contractor. It is done the moment the\n    // Offer is accepted. Set once by the Offerer.\n    uint initialWithdrawal;\n    bool initialWithdrawalDone;\n\n    // The minimum daily withdrawal limit that the Contractor accepts.\n    // Set once by the Offerer.\n    uint128 minDailyWithdrawalLimit;\n\n    // The amount of wei the Contractor has right to withdraw daily above the\n    // initial withdrawal. The Contractor does not have to perform the\n    // withdrawals every day as this amount accumulates.\n    uint128 dailyWithdrawalLimit;\n\n    // The address of the Contractor.\n    address contractor;\n\n    // The hash of the Proposal/Offer document.\n    bytes32 hashOfTheProposalDocument;\n\n    // The time of the last withdrawal to the Contractor.\n    uint lastWithdrawal;\n\n    // The timestamp when the offer contract was accepted.\n    uint dateOfSignature;\n    // The address of the current Client.\n    DAO client;\n    // The address of the Client who accepted the Offer.\n    DAO originalClient;\n    bool isContractValid;\n    // The ID of the proposal that represents this contract in the DAO\n    uint proposalID;\n    bool wasApprovedBeforeDeadline;\n\n    modifier onlyClient {\n        assert (!(msg.sender != address(client)));\n        _;\n    }\n    modifier onlyContractor {\n        assert (!(msg.sender != address(contractor)));\n        _;\n    }\n\n    // Prevents methods from perfoming any value transfer\n    modifier noEther() {assert (!(msg.value > 0)) ; _;} //Not necessary anymore, if function isnt marked payable it is \n                                                        //automatically unpayable\n\n    constructor(\n        address _contractor,\n        address payable _client,\n        bytes32 _hashOfTheProposalDocument,\n        uint _totalCost,\n        uint _initialWithdrawal,\n        uint128 _minDailyWithdrawalLimit\n    ) {\n        contractor = _contractor;\n        originalClient = DAO(_client);\n        client = DAO(_client);\n        hashOfTheProposalDocument = _hashOfTheProposalDocument;\n        totalCost = _totalCost;\n        initialWithdrawal = _initialWithdrawal;\n        minDailyWithdrawalLimit = _minDailyWithdrawalLimit;\n        dailyWithdrawalLimit = _minDailyWithdrawalLimit;\n    }\n\n    // non-value-transfer getters\n    function getTotalCost() public view returns (uint) {\n        return totalCost;\n    }\n\n    function getInitialWithdrawal() public view returns (uint) {\n        return initialWithdrawal;\n    }\n\n    function getMinDailyWithdrawalLimit() public view returns (uint128) {\n        return minDailyWithdrawalLimit;\n    }\n\n    function getDailyWithdrawalLimit() public view returns (uint128) {\n        return dailyWithdrawalLimit;\n    }\n\n    function getContractor() public view returns (address) {\n        return contractor;\n    }\n\n    function getHashOfTheProposalDocument() public view returns (bytes32) {\n        return hashOfTheProposalDocument;\n    }\n\n    function getLastWithdrawal() public view returns (uint) {\n        return lastWithdrawal;\n    }\n\n    function getDateOfSignature() public view returns (uint) {\n        return dateOfSignature;\n    }\n\n    function getClient() public view returns (DAO) {\n        return client;\n    }\n\n    function getOriginalClient() public view returns (DAO) {\n        return originalClient;\n    }\n\n    function getIsContractValid() public view returns (bool) {\n        return isContractValid;\n    }\n\n    function getInitialWithdrawalDone() public view returns (bool) {\n        return initialWithdrawalDone;\n    }\n\n    function getWasApprovedBeforeDeadline() public view returns (bool) {\n        return wasApprovedBeforeDeadline;\n    }\n\n    function getProposalID() public view returns (uint) {\n        return proposalID;\n    }\n\n    function sign() public payable{\n        (,,,uint votingDeadline,,,,,,,,) = client.proposals(proposalID);\n        assert (!(msg.sender != address(originalClient) // no good samaritans give us ether\n            || msg.value != totalCost    // no under/over payment\n            || dateOfSignature != 0       // don't sign twice\n            || !wasApprovedBeforeDeadline // fail if the voteStatusCheck was not done\n            || block.timestamp < votingDeadline + splitGracePeriod)); // allow splitting within the split grace period\n\n        dateOfSignature = block.timestamp;\n        isContractValid = true;\n        lastWithdrawal = block.timestamp + payoutFreezePeriod;\n    }\n\n    function setDailyWithdrawLimit(uint128 _dailyWithdrawalLimit) onlyClient public{\n        if (_dailyWithdrawalLimit >= minDailyWithdrawalLimit)\n            dailyWithdrawalLimit = _dailyWithdrawalLimit;\n    }\n\n    // Terminate the ongoing Offer.\n    //\n    // The Client can terminate the ongoing Offer using this method. Using it\n    // on an invalid (balance 0) Offer has no effect. The Contractor loses\n    // right to any ether left in the Offer.\n    function terminate() onlyClient public {\n        (bool success, ) =  (address(originalClient.DAOrewardAccount()).call {value : address(this).balance}(\"\"));\n        if(success){ \n           isContractValid = false;\n        }\n    }\n\n    // Withdraw to the Contractor.\n    //\n    // Withdraw the amount of ether the Contractor has right to according to\n    // the current withdraw limit.\n    // Executing this function before the Offer is signed off by the Client\n    // makes no sense as this contract has no ether.\n    function withdraw() public {\n        assert (!(msg.sender != contractor || block.timestamp < dateOfSignature + payoutFreezePeriod));\n        uint timeSinceLastPayment = block.timestamp - lastWithdrawal;\n        // Calculate the amount using 1 second precision.\n        uint amount = (timeSinceLastPayment * dailyWithdrawalLimit) / (1 days);\n        if (amount > address(this).balance) {\n            amount = address(this).balance;\n        }\n        uint lastWithdrawalReset = lastWithdrawal;\n        lastWithdrawal = block.timestamp;\n        if (!(payable(contractor).send(amount)))\n            lastWithdrawal = lastWithdrawalReset;\n    }\n\n    // Perform the withdrawal of the initial sum of money to the contractor\n    function performInitialWithdrawal() public {\n        assert (!(msg.sender != contractor\n            || block.timestamp < dateOfSignature + payoutFreezePeriod\n            || initialWithdrawalDone )); \n\n        initialWithdrawalDone = true;\n        assert (payable(contractor).send(initialWithdrawal));\n    }\n\n    // Once a proposal is submitted, the Contractor should call this\n    // function to register its proposal ID with the offer contract\n    // so that the vote can be watched and checked with `checkVoteStatus()`\n    function watchProposal(uint _proposalID) onlyContractor public {\n        (address recipient,,,uint votingDeadline,bool open,,,,,,,) = client.proposals(_proposalID);\n        if (recipient == address(this)\n            && votingDeadline > block.timestamp\n            && open\n            && proposalID == 0) {\n            proposalID =  _proposalID;\n        }\n    }\n\n    // The proposal will not accept the results of the vote if it wasn't able\n    // to be sure that YEA was able to succeed 48 hours before the deadline\n    function checkVoteStatus() public {\n        (,,,uint votingDeadline,,,,,,uint yea,uint nay,) = client.proposals(proposalID);\n        uint quorum = yea * 100 / client.totalSupply();\n\n        // Only execute until 48 hours before the deadline\n        assert (!(block.timestamp > votingDeadline - voteStatusDeadline));\n        // If quorum is met and majority is for it then the prevote\n        // check can be considered as succesfull\n        wasApprovedBeforeDeadline = (quorum >= 100 / client.minQuorumDivisor() && yea > nay);\n    }\n\n    // Change the client DAO by giving the new DAO's address\n    // warning: The new DAO must come either from a split of the original\n    // DAO or an update via `newContract()` so that it can claim rewards\n    function updateClientAddress(DAO _newClient) onlyClient public {\n        client = _newClient;\n    }\n\n    fallback () external{\n        assert(false); // this is a business contract, no donations\n    }\n}",
  "sourcePath": "/Users/MacHD/Desktop/TheDAO/DAO-Transpile/DAO-Transpilation2/contracts/PFOffer.sol",
  "compiler": {
    "name": "solc",
    "version": "0.8.21+commit.d9974bed.Emscripten.clang"
  },
  "schemaVersion": "3.4.16",
  "updatedAt": "2024-03-07T20:39:28.354Z",
  "devdoc": {
    "kind": "dev",
    "methods": {},
    "version": 1
  },
  "userdoc": {
    "kind": "user",
    "methods": {},
    "version": 1
  }
}