{
  "contractName": "RewardOffer",
  "abi": [
    {
      "inputs": [
        {
          "internalType": "address",
          "name": "_contractor",
          "type": "address"
        },
        {
          "internalType": "address payable",
          "name": "_client",
          "type": "address"
        },
        {
          "internalType": "bytes32",
          "name": "_hashOfTheProposalDocument",
          "type": "bytes32"
        },
        {
          "internalType": "uint256",
          "name": "_totalCost",
          "type": "uint256"
        },
        {
          "internalType": "uint256",
          "name": "_initialWithdrawal",
          "type": "uint256"
        },
        {
          "internalType": "uint128",
          "name": "_minDailyWithdrawalLimit",
          "type": "uint128"
        },
        {
          "internalType": "uint256",
          "name": "_payoutFreezePeriod",
          "type": "uint256"
        }
      ],
      "stateMutability": "nonpayable",
      "type": "constructor"
    },
    {
      "stateMutability": "nonpayable",
      "type": "fallback"
    },
    {
      "inputs": [],
      "name": "getClient",
      "outputs": [
        {
          "internalType": "contract DAO",
          "name": "",
          "type": "address"
        }
      ],
      "stateMutability": "view",
      "type": "function"
    },
    {
      "inputs": [],
      "name": "getContractor",
      "outputs": [
        {
          "internalType": "address",
          "name": "",
          "type": "address"
        }
      ],
      "stateMutability": "view",
      "type": "function"
    },
    {
      "inputs": [],
      "name": "getDailyWithdrawalLimit",
      "outputs": [
        {
          "internalType": "uint128",
          "name": "",
          "type": "uint128"
        }
      ],
      "stateMutability": "view",
      "type": "function"
    },
    {
      "inputs": [],
      "name": "getDateOfSignature",
      "outputs": [
        {
          "internalType": "uint256",
          "name": "",
          "type": "uint256"
        }
      ],
      "stateMutability": "view",
      "type": "function"
    },
    {
      "inputs": [],
      "name": "getHashOfTheProposalDocument",
      "outputs": [
        {
          "internalType": "bytes32",
          "name": "",
          "type": "bytes32"
        }
      ],
      "stateMutability": "view",
      "type": "function"
    },
    {
      "inputs": [],
      "name": "getInitialWithdrawal",
      "outputs": [
        {
          "internalType": "uint256",
          "name": "",
          "type": "uint256"
        }
      ],
      "stateMutability": "view",
      "type": "function"
    },
    {
      "inputs": [],
      "name": "getInitialWithdrawalDone",
      "outputs": [
        {
          "internalType": "bool",
          "name": "",
          "type": "bool"
        }
      ],
      "stateMutability": "view",
      "type": "function"
    },
    {
      "inputs": [],
      "name": "getIsContractValid",
      "outputs": [
        {
          "internalType": "bool",
          "name": "",
          "type": "bool"
        }
      ],
      "stateMutability": "view",
      "type": "function"
    },
    {
      "inputs": [],
      "name": "getLastWithdrawal",
      "outputs": [
        {
          "internalType": "uint256",
          "name": "",
          "type": "uint256"
        }
      ],
      "stateMutability": "view",
      "type": "function"
    },
    {
      "inputs": [],
      "name": "getMinDailyWithdrawalLimit",
      "outputs": [
        {
          "internalType": "uint128",
          "name": "",
          "type": "uint128"
        }
      ],
      "stateMutability": "view",
      "type": "function"
    },
    {
      "inputs": [],
      "name": "getOriginalClient",
      "outputs": [
        {
          "internalType": "contract DAO",
          "name": "",
          "type": "address"
        }
      ],
      "stateMutability": "view",
      "type": "function"
    },
    {
      "inputs": [],
      "name": "getPayoutFreezePeriod",
      "outputs": [
        {
          "internalType": "uint256",
          "name": "",
          "type": "uint256"
        }
      ],
      "stateMutability": "view",
      "type": "function"
    },
    {
      "inputs": [],
      "name": "getTotalCost",
      "outputs": [
        {
          "internalType": "uint256",
          "name": "",
          "type": "uint256"
        }
      ],
      "stateMutability": "view",
      "type": "function"
    },
    {
      "inputs": [],
      "name": "getVotingDeadline",
      "outputs": [
        {
          "internalType": "uint256",
          "name": "",
          "type": "uint256"
        }
      ],
      "stateMutability": "view",
      "type": "function"
    },
    {
      "inputs": [],
      "name": "performInitialWithdrawal",
      "outputs": [],
      "stateMutability": "nonpayable",
      "type": "function"
    },
    {
      "inputs": [
        {
          "internalType": "uint128",
          "name": "_dailyWithdrawalLimit",
          "type": "uint128"
        }
      ],
      "name": "setDailyWithdrawLimit",
      "outputs": [],
      "stateMutability": "nonpayable",
      "type": "function"
    },
    {
      "inputs": [
        {
          "internalType": "uint256",
          "name": "_votingDeadline",
          "type": "uint256"
        }
      ],
      "name": "setVotingDeadline",
      "outputs": [],
      "stateMutability": "nonpayable",
      "type": "function"
    },
    {
      "inputs": [],
      "name": "sign",
      "outputs": [],
      "stateMutability": "payable",
      "type": "function"
    },
    {
      "inputs": [],
      "name": "terminate",
      "outputs": [],
      "stateMutability": "nonpayable",
      "type": "function"
    },
    {
      "inputs": [
        {
          "internalType": "contract DAO",
          "name": "_newClient",
          "type": "address"
        }
      ],
      "name": "updateClientAddress",
      "outputs": [],
      "stateMutability": "nonpayable",
      "type": "function"
    },
    {
      "inputs": [],
      "name": "withdraw",
      "outputs": [],
      "stateMutability": "nonpayable",
      "type": "function"
    },
    {
      "inputs": [
        {
          "internalType": "uint256",
          "name": "_rewardDivisor",
          "type": "uint256"
        }
      ],
      "name": "setRewardDivisor",
      "outputs": [],
      "stateMutability": "nonpayable",
      "type": "function"
    },
    {
      "inputs": [
        {
          "internalType": "uint256",
          "name": "_deploymentReward",
          "type": "uint256"
        }
      ],
      "name": "setDeploymentReward",
      "outputs": [],
      "stateMutability": "nonpayable",
      "type": "function"
    },
    {
      "inputs": [],
      "name": "getRewardDivisor",
      "outputs": [
        {
          "internalType": "uint256",
          "name": "",
          "type": "uint256"
        }
      ],
      "stateMutability": "view",
      "type": "function"
    },
    {
      "inputs": [],
      "name": "getDeploymentReward",
      "outputs": [
        {
          "internalType": "uint256",
          "name": "",
          "type": "uint256"
        }
      ],
      "stateMutability": "view",
      "type": "function"
    }
  ],
  "bytecode": "0x6080346100e557601f6109ee38819003918201601f19168301916001600160401b038311848410176100e95780849260e0946040528339810103126100e55780516001600160a01b0380821692918390036100e55760208201519081168091036100e5576040820151606083015160808401519160a08501519360018060801b038516958686036100e55760c00151600480546001600160a01b03199081169099179055600a8054891683179055600980549098169091179096556005555f5560015560801b6001600160801b031916176002556003556040516108f090816100fe8239f35b5f80fd5b634e487b7160e01b5f52604160045260245ffdfe6080604081815260049182361015610030575b50503461002c57600190634e487b7160e01b5f525260245ffd5b5f80fd5b5f91823560e01c9182630c0662a81461082c575081630c08bf881461071f57816314918f5e1461068f5781631632070c146106605781631bcad37a146106435781631f7b862214610624578163262c0b72146106055781632ca15122146104fb5781633ccfd60b1461043357816342d167481461040b57816343bf718e146103ec578163525b25b1146103cd57816359dc735c146103a457816360213b88146103855781636a7fc8b71461031457816372b75585146102eb5781637416cd32146102a3578163a00ce3771461027c578163b29ae23f1461025d578163b6cb405b14610230578163d44f2d3d14610209578163d6b4ec12146101e7578163e32e9f22146101b8578163e954039514610199575063edfbf7b6146101525780610012565b90346101955760203660031901126101955780546001600160a01b0316331480159061018a575b6101839015610869565b3560085580f35b506008541515610179565b5080fd5b905034610195578160031936011261019557602090600b549051908152f35b828434610195576020366003190112610195576101e060018060a01b03600954163314610869565b35600c5580f35b90503461019557816003193601126101955760209060025460801c9051908152f35b90503461019557816003193601126101955760209060ff600a5460a81c1690519015158152f35b905082346102595782600319360112610259575490516001600160a01b03909116815260209150f35b8280fd5b9050346101955781600319360112610195576020906007549051908152f35b90503461019557816003193601126101955760209060ff600a5460a01c1690519015158152f35b82843461019557602036600319011261019557356001600160a01b0381811691829003610259576102da6009549182163314610869565b6001600160a01b0319161760095580f35b905034610195578160031936011261019557600a5490516001600160a01b039091168152602090f35b82843461019557602036600319011261019557356001600160801b0390818116918282036103815761035160018060a01b03600954163314610869565b6002541680921015610361578280f35b60801b6fffffffffffffffffffffffffffffffff19161760025581808280f35b8380fd5b9050346101955781600319360112610195576020906001549051908152f35b90503461019557816003193601126101955760095490516001600160a01b039091168152602090f35b905034610195578160031936011261019557602090600c549051908152f35b9050346101955781600319360112610195576020906005549051908152f35b9050346101955781600319360112610195576020906001600160801b03600254169051908152f35b82843461019557816003193601126101955780546001600160a01b03163381148015906104df575b6104659015610869565b60065491824203904282116104cc5760025460801c8083029283041484421417156104cc57508380809362015180829404904782116104c4575b426006558282156104bb575bf1156104b5575080f35b60065580f35b506108fc6104ab565b47915061049f565b634e487b7160e01b855260119052602484fd5b506104656104f260085460035490610848565b4210905061045b565b82848160031936011261019557600a546001600160a01b03918391831633148015906105fa575b80156105ef575b80156105e5575b80156105b5575b6105419015610869565b6008546105516003548092610848565b60065515610575575b5042600755600a805460ff60a01b1916600160a01b17905580f35b81806105919481935416600154908282156105ac575bf1610869565b600a805460ff60a81b1916600160a81b17905581818161055a565b506108fc61058b565b509050600854620a8c0081018091116105d2578391904210610537565b634e487b7160e01b845260118252602484fd5b5060085415610530565b506007541515610529565b508154341415610522565b9050346101955781600319360112610195576020906003549051908152f35b9050346101955781600319360112610195576020906008549051908152f35b905034610195578160031936011261019557602091549051908152f35b8284346101955760203660031901126101955761068860018060a01b03600954163314610869565b35600b5580f35b82843461019557818060031936011261071c578080806106f39460018060a01b03905416803314801590610705575b80156106f6575b6106cf9015610869565b600a805460ff60a81b1916600160a81b179055600154908282156105ac57f1610869565b80f35b50600a5460a81c60ff166106c5565b5061071560085460035490610848565b42106106be565b80fd5b9050346101955781600319360112610195578260018060a01b0361074881600954163314610869565b602081600a54168451938480926320afd91960e21b82525afa91821561081f579084929183926107e1575b5082809281924791165af1903d156107d8573d67ffffffffffffffff81116107c5576107ae92939450602090601f8019910116019051610884565b6107b55780f35b600a805460ff60a01b1916905580f35b634e487b7160e01b845260418552602484fd5b509091506107ae565b915091506020813d8211610817575b816107fd60209383610884565b810103126103815751818116810361038157839182610773565b3d91506107f0565b50505051903d90823e3d90fd5b8390346101955781600319360112610195576020906006548152f35b9190820180921161085557565b634e487b7160e01b5f52601160045260245ffd5b1561087057565b634e487b7160e01b5f52600160045260245ffd5b90601f8019910116810190811067ffffffffffffffff8211176108a657604052565b634e487b7160e01b5f52604160045260245ffdfea26469706673582212200132dd0d2326da241b946dafb02fc4f813c1aaca9c31ecdba3f69db240b91ac064736f6c63430008150033",
  "immutableReferences": {},
  "source": "/*\nThis file is part of the DAO.\n\nThe DAO is free software: you can redistribute it and/or modify\nit under the terms of the GNU lesser General Public License as published by\nthe Free Software Foundation, either version 3 of the License, or\n(at your option) any later version.\n\nThe DAO is distributed in the hope that it will be useful,\nbut WITHOUT ANY WARRANTY; without even the implied warranty of\nMERCHANTABILITY or FITNESS FOR A PARTICULAR PURPOSE.  See the\nGNU lesser General Public License for more details.\n\nYou should have received a copy of the GNU lesser General Public License\nalong with the DAO.  If not, see <http://www.gnu.org/licenses/>.\n*/\n\n\n/*\n  Sample Proposal from a Contractor to the DAO including a reward towards the\n  DAO.\n\n  Feel free to use as a template for your own proposal.\n*/\n\nimport \"./Offer.sol\";\n\npragma solidity ^0.8.21;\n\ncontract RewardOffer is Offer {\n\n    uint rewardDivisor;\n    uint deploymentReward;\n\n    constructor(\n        address _contractor,\n        address payable _client,\n        bytes32 _hashOfTheProposalDocument,\n        uint _totalCost,\n        uint _initialWithdrawal,\n        uint128 _minDailyWithdrawalLimit,\n        uint _payoutFreezePeriod\n    ) Offer(\n        _contractor,\n        _client,\n        _hashOfTheProposalDocument,\n        _totalCost,\n        _initialWithdrawal,\n        _minDailyWithdrawalLimit,\n        _payoutFreezePeriod) {\n    }\n\n    function setRewardDivisor(uint _rewardDivisor) onlyClient public {\n        rewardDivisor = _rewardDivisor;\n    }\n\n    function setDeploymentReward(uint _deploymentReward) onlyClient public {\n        deploymentReward = _deploymentReward;\n    }\n\n    // non-value-transfer getters\n    function getRewardDivisor() public view returns (uint) {\n        return rewardDivisor;\n    }\n\n    function getDeploymentReward() public view returns (uint) {\n        return deploymentReward;\n    }\n}",
  "sourcePath": "/Users/MacHD/Desktop/TheDAO/DAO-Transpile/DAO-Transpilation2/contracts/RewardOffer.sol",
  "compiler": {
    "name": "solc",
    "version": "0.8.21+commit.d9974bed.Emscripten.clang"
  },
  "schemaVersion": "3.4.16",
  "updatedAt": "2024-03-07T20:39:28.361Z",
  "devdoc": {
    "kind": "dev",
    "methods": {},
    "version": 1
  },
  "userdoc": {
    "kind": "user",
    "methods": {},
    "version": 1
  }
}