{
  "contractName": "USNRewardPayOut",
  "abi": [
    {
      "inputs": [
        {
          "internalType": "contract RewardOffer",
          "name": "_usnContract",
          "type": "address"
        }
      ],
      "stateMutability": "nonpayable",
      "type": "constructor"
    },
    {
      "inputs": [],
      "name": "usnContract",
      "outputs": [
        {
          "internalType": "contract RewardOffer",
          "name": "",
          "type": "address"
        }
      ],
      "stateMutability": "view",
      "type": "function"
    },
    {
      "inputs": [],
      "name": "payOneTimeReward",
      "outputs": [
        {
          "internalType": "bool",
          "name": "",
          "type": "bool"
        }
      ],
      "stateMutability": "payable",
      "type": "function"
    },
    {
      "inputs": [],
      "name": "payReward",
      "outputs": [
        {
          "internalType": "bool",
          "name": "",
          "type": "bool"
        }
      ],
      "stateMutability": "payable",
      "type": "function"
    }
  ],
  "bytecode": "0x60803461007357601f61047c38819003918201601f19168301916001600160401b038311848410176100775780849260209460405283398101031261007357516001600160a01b03811690819003610073575f80546001600160a01b0319169190911790556040516103f0908161008c8239f35b5f80fd5b634e487b7160e01b5f52604160045260245ffdfe60806040526004361015610011575f80fd5b5f803560e01c806336dfe260146100845780637842a3a414610064576399d8122e1461003b575f80fd5b34610061578060031936011261006157546040516001600160a01b039091168152602090f35b80fd5b508060031936011261006157602061007a6102ba565b6040519015158152f35b508060031936011261006157602061007a610132565b90601f8019910116810190811067ffffffffffffffff8211176100bc57604052565b634e487b7160e01b5f52604160045260245ffd5b908160209103126100ef57516001600160a01b03811681036100ef5790565b5f80fd5b3d1561012d573d9067ffffffffffffffff82116100bc5760405191610122601f8201601f19166020018461009a565b82523d5f602084013e565b606090565b5f80546040805163525b25b160e01b81529092916020916001600160a01b03918216908381600481855afa9081156102b057859161027f575b50341061026b57826004918651928380926372b7558560e01b82525afa9081156102445782918491869161024e575b5060048751809481936320afd91960e21b8352165afa928315610244579284939284939284938493610215575b50503491165af16101d66100f3565b50156101e25750600190565b5162461bcd60e51b815260206004820152600d60248201526c4572726f72206d65737361676560981b6044820152606490fd5b610235929350803d1061023d575b61022d818361009a565b8101906100d0565b905f806101c7565b503d610223565b85513d86823e3d90fd5b6102659150823d841161023d5761022d818361009a565b5f61019a565b634e487b7160e01b84526001600452602484fd5b90508381813d83116102a9575b610296818361009a565b810103126102a557515f61016b565b8480fd5b503d61028c565b86513d87823e3d90fd5b5f80546040516372b7558560e01b81526020916001600160a01b03919083908290600490829086165afa9081156103925782918491869161039d575b506004604051809481936320afd91960e21b8352165afa928315610392579284939284939284938493610373575b50503491165af16103336100f3565b501561033e57600190565b60405162461bcd60e51b815260206004820152600d60248201526c4572726f72206d65737361676560981b6044820152606490fd5b61038a929350803d1061023d5761022d818361009a565b905f80610324565b6040513d86823e3d90fd5b6103b49150823d841161023d5761022d818361009a565b5f6102f656fea2646970667358221220ddb27cf21adf8fc48480e65db0fe226e8d49e8731633b9e9e4817cebbb9310f164736f6c63430008150033",
  "immutableReferences": {},
  "source": "// SPDX-License-Identifier: UNLICENSED\n\nimport \"./RewardOffer.sol\";\n\npragma solidity ^0.8.0;\n\ncontract USNRewardPayOut {\n\n     RewardOffer public usnContract;\n\n     constructor(RewardOffer _usnContract) {\n          usnContract = _usnContract;\n     }\n\n     // interface for USN\n     function payOneTimeReward() public payable returns(bool) {\n         assert (!(msg.value < usnContract.getDeploymentReward()));\n\n         (bool success, ) = (address(usnContract.getOriginalClient().DAOrewardAccount()).call{value : msg.value}(\"\"));\n         if(success) {\n             return true;\n         } else {\n             revert(\"Error message\");\n         }\n     }\n\n     // pay reward\n     function payReward() public payable returns(bool) {\n        (bool success, ) = (address(usnContract.getOriginalClient().DAOrewardAccount()).call{value : msg.value}(\"\"));\n         if(success){\n             return true;\n         } else {\n             revert(\"Error message\");\n         }\n     }\n}",
  "sourcePath": "/Users/MacHD/Desktop/TheDAO/DAO-Transpile/DAO-Transpilation2/contracts/USNRewardPayOut.sol",
  "compiler": {
    "name": "solc",
    "version": "0.8.21+commit.d9974bed.Emscripten.clang"
  },
  "schemaVersion": "3.4.16",
  "updatedAt": "2024-03-08T16:09:51.202Z",
  "devdoc": {
    "kind": "dev",
    "methods": {},
    "version": 1
  },
  "userdoc": {
    "kind": "user",
    "methods": {},
    "version": 1
  }
}